:020000040000FA
:0400000007EF00F016
:100008005C8223ED31F064EF2EF03D0E0001ED6FC0
:10001800E10EEC6F3F0EE82EFED7EC2FFCD7ED2F4C
:10002800FAD700D00F0EC16E3F0E94169494949296
:1000380093989396BD50F00B0C09BD6EBA50F00B17
:100048000C09BA6E000EBE6ECF0EBD16000EBB6E4A
:10005800CF0EBA169D82F188F0889D8AD09EF28EC6
:10006800F28C010E126E900E116EF8EC2FF0F90E54
:10007800CB6E130ECA6E000E156EC20E166E010EF2
:10008800176E000E186E010E196E93EC32F0CA84CA
:10009800CD90680E41EC34F0450E056E7F0E066E6D
:1000A800C5EC30F082EC33F0070E056E7F0E066E5D
:1000B800C5EC30F075EC33F00009D8A466EF00F019
:1000C80068EF00F06FEF00F0620E0101D76F7F0E4E
:1000D800D86F74EF00F0260E0101D76F7F0ED86F2E
:1000E800D7C105F0D8C106F0C5EC30F0C50E056ED5
:1000F8007F0E066EC5EC30F0BAEC26F00009D8B4D5
:1001080088EF00F08AEF00F092EF00F07D0E056EA8
:100118007F0E066EC5EC30F09AEF00F0980E056E73
:100128007F0E066EC5EC30F098EF00F0DA0E056E23
:100138007F0E066EC5EC30F0010EE8EC33F08FEC64
:1001480033F03CEC34F074C1D3F175C1D4F176C10D
:10015800D5F177C1D6F1000E0101DB6F000EDC6F1F
:10016800000EDD6F0A0E0101686FD70E696F230E4E
:100178006A6F3C0E6B6F56EC14F001017D51D8B4D8
:10018800C8EF00F0CAEF00F0C1EF00F0000E7D6F7D
:10019800AE0E506E010E516E2BEC34F00009D8B43F
:1001A800D8EF00F0DAEF00F0CCEF00F0A30E316EDC
:1001B800020E326EAE0E336E010E346EF2EC25F086
:1001C800CB0E046E020E056EAE0E066E010E076EA5
:1001D80003EC2AF0BF0E0001686F020E696FA30ED0
:1001E8006A6F020E6B6FACEC1DF0A60E0001726F09
:1001F800010E736FCB0E746F020E756FBF0E766FA4
:10020800020E776F3CEC23F0B30E0001DA6F020E9A
:10021800DB6FA30EDC6F020EDD6FBF0EDE6F020E0A
:10022800DF6FF4EC30F0AEC1D3F2AFC1D4F2B2C19B
:10023800D5F2B3C1D6F2B6C1D7F2B7C1D8F2BAC1B6
:10024800D9F2BBC1DAF2000E356E000E366E7A0EA8
:10025800376E440E386E24C131F025C132F026C104
:1002680033F027C134F0CAEC19F031C068F032C05D
:1002780069F033C06AF034C06BF00CEC28F0000170
:1002880069C068F0696B68BF696968510201DB6F12
:10029800000E356E000E366E7A0E376E440E386ECE
:1002A80024C131F025C132F026C133F027C134F022
:1002B800CAEC19F031C068F032C069F033C06AF096
:1002C80034C06BF00CEC28F0000168510201DC6FBF
:1002D800000E356E000E366E7A0E376E440E386E8E
:1002E80028C131F029C132F02AC133F02BC134F0D2
:1002F800CAEC19F031C068F032C069F033C06AF056
:1003080034C06BF00CEC28F0000169C068F0696B30
:1003180068BF696968510201DD6F000E356E000E15
:10032800366E7A0E376E440E386E28C131F029C108
:1003380032F02AC133F02BC134F0CAEC19F031C0C5
:1003480068F032C069F033C06AF034C06BF00CEC6E
:1003580028F0000168510201DE6FBBC231F0BCC257
:1003680032F0BDC233F0BEC234F0E10E356E2E0E4F
:10037800366E650E376E420E386ECAEC19F031C013
:10038800E6F132C0E7F133C0E8F134C0E9F1010128
:100398007C51D8A4D2EF01F0D4EF01F009EF02F0BC
:1003A800E6C14AF0E7C14BF0E8C14CF0E9C14DF0B5
:1003B800000E4E6E000E4F6E000E506E400E516EC7
:1003C80090EC28F0D8B0EBEF01F0EDEF01F009EF79
:1003D80002F0000E4A6E000E4B6E000E4C6EC00E00
:1003E8004D6EE6C14EF0E7C14FF0E8C150F0E9C1EB
:1003F80051F090EC28F0D8B004EF02F006EF02F0CC
:1004080009EF02F0010E01017C6F01017C51D8B4A3
:1004180010EF02F012EF02F03AEF04F0E6C14AF0F2
:10042800E7C14BF0E8C14CF0E9C14DF0000E4E6E4B
:10043800000E4F6EA00E506E420E516E90EC28F0DA
:10044800D8B029EF02F02BEF02F03AEF04F0000EDB
:100458004A6E000E4B6EA00E4C6EC20E4D6EE6C17B
:100468004EF0E7C14FF0E8C150F0E9C151F090EC0F
:1004780028F0D8B042EF02F044EF02F03AEF04F06F
:100488006CC14EF06DC14FF06EC150F06FC151F0AC
:1004980070C14AF071C14BF072C14CF073C14DF09C
:1004A8006AEC17F04AC0CFF14BC0D0F14CC0D1F183
:1004B8004DC0D2F1CFC160F0D0C161F0D1C162F0BE
:1004C800D2C163F0E6C164F0E7C165F0E8C166F047
:1004D800E9C167F0A9EC31F060C05CF161C05DF181
:1004E80062C05EF163C05FF158C14AF059C14BF078
:1004F8005AC14CF05BC14DF05CC135F05DC136F0BE
:100508005EC137F05FC138F0F2C131F0F3C132F0AB
:10051800F4C133F0F5C134F0CAEC19F031C04EF033
:1005280032C04FF033C050F034C051F06AEC17F0CD
:100538004AC058F14BC059F14CC05AF14DC05BF15B
:10054800FCC10AF0FDC10BF0000E0BBEFF0E0C6ED5
:100558000D6E010E18EC25F00AC04AF00BC04BF0E6
:100568000CC04CF00DC04DF058C14EF059C14FF0C1
:100578005AC150F05BC151F090EC28F0D8B0C7EFE9
:1005880002F0C9EF02F0DFEF02F0FCC10AF0FDC192
:100598000BF0000E0BBEFF0E0C6E0D6E010E18EC6C
:1005A80025F00AC058F10BC059F10CC05AF10DC022
:1005B8005BF12AEF03F058C14AF059C14BF05AC118
:1005C8004CF05BC14DF0FCC1ECF0FDC1EDF0000159
:1005D800EC1FED1FEC4BED2BECC00AF0EDC00BF05F
:1005E800000E0BBEFF0E0C6E0D6E010E18EC25F002
:1005F8000AC04EF00BC04FF00CC050F00DC051F0C7
:1006080090EC28F0D8B00BEF03F00DEF03F02AEFD1
:1006180003F0FCC1ECF0FDC1EDF00001EC1FED1F93
:10062800EC4BED2BECC00AF0EDC00BF0000E0BBE4E
:10063800FF0E0C6E0D6E010E18EC25F00AC058F175
:100648000BC059F10CC05AF10DC05BF160C164F0E8
:1006580061C165F062C166F063C167F0E6C160F030
:10066800E7C161F0E8C162F0E9C163F0A9EC31F0DB
:1006780060C031F061C032F062C033F063C034F062
:10068800EEC135F0EFC136F0F0C137F0F1C138F006
:10069800CAEC19F031C054F132C055F133C056F1EB
:1006A80034C057F154C164F055C165F056C166F0C5
:1006B80057C167F05CC135F05DC136F05EC137F0F7
:1006C8005FC138F0F6C131F0F7C132F0F8C133F04C
:1006D800F9C134F0CAEC19F031C060F032C061F0F1
:1006E80033C062F034C063F0A9EC31F060C0E2F1CD
:1006F80061C0E3F162C0E4F163C0E5F1E2C14AF030
:10070800E3C14BF0E4C14CF0E5C14DF058C14EF0E7
:1007180059C14FF05AC150F05BC151F06AEC17F063
:100728004AC064F14BC065F14CC066F14DC067F139
:10073800FCC10AF0FDC10BF0000E0BBEFF0E0C6EE3
:100748000D6E010E18EC25F00AC04AF00BC04BF0F4
:100758000CC04CF00DC04DF064C14EF065C14FF0B7
:1007680066C150F067C151F090EC28F0D8B0BFEFE7
:1007780003F0C1EF03F0D7EF03F0FCC10AF0FDC1AD
:100788000BF0000E0BBEFF0E0C6E0D6E010E18EC7A
:1007980025F00AC064F10BC065F10CC066F10DC00C
:1007A80067F122EF04F064C14AF065C14BF066C1FD
:1007B8004CF067C14DF0FCC1ECF0FDC1EDF000015B
:1007C800EC1FED1FEC4BED2BECC00AF0EDC00BF06D
:1007D800000E0BBEFF0E0C6E0D6E010E18EC25F010
:1007E8000AC04EF00BC04FF00CC050F00DC051F0D5
:1007F80090EC28F0D8B003EF04F005EF04F022EFF6
:1008080004F0FCC1ECF0FDC1EDF00001EC1FED1FA0
:10081800EC4BED2BECC00AF0EDC00BF0000E0BBE5C
:10082800FF0E0C6E0D6E010E18EC25F00AC064F177
:100838000BC065F10CC066F10DC067F1E6C160F14F
:10084800E7C161F1E8C162F1E9C163F164C168F02F
:1008580065C169F066C16AF067C16BF00CEC28F0FD
:1008680068C0D9F169C0DAF157EF04F0000E010150
:100878006C6F000E6D6F000E6E6F000E6F6F000EC6
:10088800706F000E716F000E726F000E736F000EA6
:10089800586F000E596F000E5A6F000E5B6F000EF6
:1008A800DA6F000ED96F0101D351745D0001EC6F4E
:1008B8000101D45175590001ED6F0101D5517659E7
:1008C8000001EE6F0101D65177590001EF6FEF512A
:1008D800EE11ED1109E1640EEC5DD8A076EF04F09D
:1008E80078EF04F0A8EF04F0700ED26F030ED36F08
:1008F800AF0ED46F7F0ED56FF6C1D6F0F7C1D7F023
:10090800F8C1D8F0F9C1D9F0F2C1DAF0F3C1DBF0DF
:10091800F4C1DCF0F5C1DDF0EEC1DEF0EFC1DFF0CF
:10092800F0C1E0F0F1C1E1F080EC31F0700E056E3D
:10093800030E066EC5EC30F074C1D3F175C1D4F165
:1009480076C1D5F177C1D6F1D9C1ECF1DAC1EDF1B3
:10095800ECC1EAF1EDC1EBF101017E51D8B4B7EF7A
:1009680004F0B9EF04F0D3EF04F07E05D8A4BFEF8C
:1009780004F0C1EF04F0CBEF04F0FA51EA27FB5181
:10098800EB23FA51EC5FFB51ED5BD3EF04F0FA5126
:10099800EA5FFB51EB5BFA51EC27FB51ED230001B9
:1009A800FB05D8A4DAEF04F0DCEF04F083EF05F0E0
:1009B800000E4A6E000E4B6E000E4C6E400E4D6ED1
:1009C80028C14EF029C14FF02AC150F02BC151F077
:1009D80090EC28F0D8A0F3EF04F0F5EF04F00EEF58
:1009E80005F028C14AF029C14BF02AC14CF02BC1AF
:1009F8004DF0000E4E6E000E4F6E000E506EC00E83
:100A0800516E90EC28F0D8B00CEF05F00EEF05F021
:100A180010EF05F009EC2CF06F0E4A6E120E4B6EBB
:100A2800830E4C6E3A0E4D6E28C14EF029C14FF020
:100A38002AC150F02BC151F090EC28F0D8B027EF24
:100A480005F029EF05F045EF05F06CC14AF06DC1DE
:100A58004BF06EC14CF06FC14DF0000E4E6E000EA3
:100A68004F6EA00E506EC00E516E6AEC17F04AC061
:100A780070F14BC071F14CC072F14DC073F183EF4E
:100A880005F028C14AF029C14BF02AC14CF02BC10E
:100A98004DF06F0E4E6E120E4F6E830E506EBA0EE4
:100AA800516E90EC28F0D8B05CEF05F05EEF05F0E1
:100AB8007AEF05F06CC14AF06DC14BF06EC14CF095
:100AC8006FC14DF0000E4E6E000E4F6EA00E506EB0
:100AD800400E516E6AEC17F04AC070F14BC071F1CC
:100AE8004CC072F14DC073F183EF05F0000E0101A7
:100AF800706F000E716F000E726F000E736F010140
:100B0800EA51FC5DFD51800A0001EC6F0101EB51D7
:100B1800800A0001EC59D8B094EF05F096EF05F083
:100B28009CEF05F0FCC1EAF1FDC1EBF1C1EF05F066
:100B3800FCC1ECF0FDC1EDF0EC1FED1FEC4BED2B13
:100B4800EC510101EA5DEB51800A0001EE6FED51B5
:100B5800800AEE59D8B0B3EF05F0B5EF05F0C1EF54
:100B680005F0FCC1ECF0FDC1EDF0EC1FED1FEC4B06
:100B7800ED2BECC0EAF1EDC0EBF10101EC51FC5DAD
:100B8800FD51800A0001EC6F0101ED51800A00015E
:100B9800EC59D8B0D2EF05F0D4EF05F0DAEF05F054
:100BA800FCC1ECF1FDC1EDF1FFEF05F0FCC1ECF08B
:100BB800FDC1EDF0EC1FED1FEC4BED2BEC510101ED
:100BC800EC5DED51800A0001EE6FED51800AEE599F
:100BD800D8B0F1EF05F0F3EF05F0FFEF05F0FCC139
:100BE800ECF0FDC1EDF0EC1FED1FEC4BED2BECC074
:100BF800ECF1EDC0EDF10101EBBF05EF06F007EFF9
:100C080006F01CEF06F00001FC51D8B40EEF06F018
:100C180012EF06F0EC6BEC2B14EF06F00001EC6B16
:100C2800EC3B8A50EC19EF0BEC198A6E2FEF06F0AB
:100C38000001FCB102D08A9801D08A88EAC104F088
:100C4800EBC105F0FF0E076E0668BCEC32F004C07D
:100C5800EAF105C0EBF10101EDBF35EF06F037EF22
:100C680006F04EEF06F00001FC51D8B43EEF06F056
:100C780042EF06F0EC6BEC2B44EF06F00001EC6B56
:100C8800EC47EC47EC478A50EC19F70BEC198A6EE5
:100C980061EF06F00001FCB102D08A9601D08A8685
:100CA800ECC104F0EDC105F0FF0E076E0668BCEC60
:100CB80032F004C0ECF105C0EDF1EAC1ECF0EBC193
:100CC800EDF00001ED35ED33EC33ED35ED33EC337C
:100CD800EC51BE6EEAC1ECF0030EEC17EC3BBD50D4
:100CE800EC19CF0BEC19BD6EECC1ECF0EDC1EDF0D9
:100CF800ED35ED33EC33ED35ED33EC33EC51BB6EC4
:100D0800ECC1ECF0030EEC17EC3BBA50EC19CF0B2E
:100D1800EC19BA6EB6EF00F007EF00F0000E000114
:100D2800996F000E986F74C0AAF075C0ABF076C0CA
:100D3800ACF077C0ADF0ADBFA6EF06F0A4EF06F0BB
:100D4800BCEF06F0000E996F010E986FAAC004F070
:100D5800ABC005F0ACC006F0ADC007F029EC32F02E
:100D680004C0AAF005C0ABF006C0ACF007C0ADF0F7
:100D7800000E0001B16F000EB06FF2C09CF0F3C01E
:100D88009DF098519911D8A4CCEF06F0CEEF06F05B
:100D9800D5EF06F05AA4D3EF06F0D5EF06F0EFEF43
:100DA80006F098519911D8A4DCEF06F0DEEF06F0B2
:100DB800E4EF06F0000E7F6F2B0E7E6FE8EF06F073
:100DC800000E7F6F2D0E7E6F7EC020F3B04BB12BCF
:100DD8009C07D8A09D07AAC004F0ABC005F0ACC022
:100DE80006F0ADC007F012EC29F004040510D8A4F1
:100DF80000EF07F002EF07F059EF07F0BF0E000110
:100E0800796FFF0E7A6F78517B6F7C6B79517B27F6
:100E18007A517C237C510AE11A0E7B5DD8A017EF2A
:100E280007F01AEF07F0010E1BEF07F0000E806FB6
:100E3800816B80518111D8B424EF07F026EF07F0B9
:100E480034EF07F0200EB025046E030EB121056EB5
:100E5800EB0E066E7F0E076E52EC31F040EF07F096
:100E6800200EB025046E030EB121056EF30E066E3A
:100E78007F0E076E52EC31F00001FD0E9C27FF0E2D
:100E88009D2372C014F073C015F0200E166E030E69
:100E9800176E9CC018F09DC019F06BEC2CF014C0B4
:100EA80072F015C073F0BEEF0CF0AAC004F0ABC02E
:100EB80005F0ACC006F0ADC007F012EC29F0045004
:100EC8000510D8A46AEF07F06CEF07F0ACEF07F055
:100ED800BF0E0001796FFF0E7A6F78517B6F7C6BC4
:100EE80079517B277A517C237C510AE11A0E7B5D6C
:100EF800D8A081EF07F084EF07F0010E85EF07F027
:100F0800000E826F836B82518311D8B48EEF07F085
:100F180090EF07F09EEF07F0200EB025046E030E49
:100F2800B121056EEF0E066E7F0E076E52EC31F0A2
:100F380040EF07F0200EB025046E030EB121056EB8
:100F4800F70E066E7F0E076E52EC31F040EF07F099
:100F5800000E0001B26F000EB36F800EB46F3F0E2B
:100F6800B56F000EAF6F000EAE6FAAC004F0ABC035
:100F780005F0ACC006F0ADC007F0000E086E000E1C
:100F8800096E000E0A6E000E0B6E24EC2DF0D8B020
:100F9800D0EF07F0D2EF07F055EF08F0F1EF07F0C8
:100FA800B2C031F0B3C032F0B4C033F0B5C034F0E1
:100FB800000E356E000E366E200E376E410E386EFE
:100FC800CAEC19F031C0B2F032C0B3F033C0B4F09B
:100FD80034C0B5F00001AE4BAF2BAAC04AF0ABC08D
:100FE8004BF0ACC04CF0ADC04DF0000E356E000EAD
:100FF800366E200E376E410E386EB2C031F0B3C077
:1010080032F0B4C033F0B5C034F0CAEC19F031C0D6
:101018004EF032C04FF033C050F034C051F090EC75
:1010280028F0D8B01AEF08F01CEF08F0D4EF07F05A
:101038003CEF08F0B2C018F0B3C019F0B4C01AF011
:10104800B5C01BF0000E1C6E000E1D6E200E1E6E2D
:10105800410E1F6EDFEC1BF018C0B2F019C0B3F0E0
:101068001AC0B4F01BC0B5F00001AE07D8A0AF0796
:10107800AAC04AF0ABC04BF0ACC04CF0ADC04DF0CC
:10108800B2C04EF0B3C04FF0B4C050F0B5C051F08C
:1010980090EC28F0D8A053EF08F055EF08F01EEFB9
:1010A80008F078C00AF00B6A95EC30F00A5000019D
:1010B8009F6F9FC09EF0670E9F19D8A466EF08F037
:1010C80068EF08F08EEF08F0F451F511D8A46FEF2F
:1010D80008F071EF08F075EF08F0000EF56F010EDB
:1010E800F46FF5BF82EF08F0F55106E1F405D8B0CA
:1010F80080EF08F082EF08F088EF08F0000E9B6F91
:10110800060E9A6F97EF08F0F4C09AF0F5C09BF0BE
:1011180097EF08F0F5BF93EF08F095EF08F082EF2E
:1011280008F088EF08F0670E9F19D8A49EEF08F022
:10113800A0EF08F0CFEF08F0AFAFAEEF08F0FC0E6D
:10114800AE5DFF0EAF59D8A0ACEF08F0AEEF08F0D7
:10115800CDEF08F0FF0E796FFF0E7A6F9AC07BF023
:101168009BC07CF079517B277A517C23AE517B5D03
:101178007C51800A7D6FAF51800A7D59D8A0C7EF96
:1011880008F0C9EF08F0CDEF08F0660E9E6FCFEFBC
:1011980008F0650E9E6F9AC090F09BC091F0670EA4
:1011A8009F19D8A4DAEF08F0DCEF08F0ECEF08F0AC
:1011B800660E9E19D8A4E3EF08F0E5EF08F0EEEF0D
:1011C80008F0AFBFECEF08F0EAEF08F0EEEF08F038
:1011D800904B912B660E9E19D8A4F5EF08F0F7EF07
:1011E80008F017EF09F0AFBFFEEF08F0FCEF08F0CA
:1011F8000AEF09F0000EB26F000EB36F800EB46FE5
:101208003F0EB56F000EAF6F000EAE6F670E9F19E1
:10121800D8B411EF09F013EF09F017EF09F0AE5148
:101228009027AF519123000EA96F000EA86FAAC096
:10123800A0F0ABC0A1F0ACC0A2F0ADC0A3F0B2C0AA
:1012480092F0B3C093F0B4C094F0B5C095F0A8EF95
:1012580009F0A0C018F0A1C019F0A2C01AF0A3C0EC
:101268001BF0B2C01CF0B3C01DF0B4C01EF0B5C076
:101278001FF0DFEC1BF018C031F019C032F01AC0B3
:1012880033F01BC034F033EC22F031C0A4F032C08C
:10129800A5F033C0A6F034C0A7F0A4C068F0A5C07C
:1012A80069F0A6C06AF0A7C06BF00CEC28F068C023
:1012B80096F069C097F0A0C060F0A1C061F0A2C02C
:1012C80062F0A3C063F0B2C035F0B3C036F0B4C06A
:1012D80037F0B5C038F0A4C031F0A5C032F0A6C0D0
:1012E80033F0A7C034F0CAEC19F031C064F032C052
:1012F80065F033C066F034C067F0A9EC31F060C027
:10130800A0F061C0A1F062C0A2F063C0A3F0B2C0B7
:1013180018F0B3C019F0B4C01AF0B5C01BF0000E35
:101328001C6E000E1D6E200E1E6E410E1F6EDFEC31
:101338001BF018C0B2F019C0B3F01AC0B4F01BC04B
:10134800B5F00001A84BA92B9051A85DA951800ABE
:10135800796F9151800A7959D8A0B5EF09F0B7EFA4
:1013680009F02DEF09F0B2C031F0B3C032F0B4C0CB
:1013780033F0B5C034F0000E356E000E366EA00E98
:10138800376E400E386ECAEC19F031C0A4F032C086
:10139800A5F033C0A6F034C0A7F0A0C04AF0A1C0A1
:1013A8004BF0A2C04CF0A3C04DF0A4C04EF0A5C0B5
:1013B8004FF0A6C050F0A7C051F090EC28F0D8B07C
:1013C800E8EF09F0EAEF09F0F5EF09F0000E000187
:1013D800A46F000EA56F000EA66F000EA76F1EEF7C
:1013E8000AF0A0C004F0A1C005F0A2C006F0A3C096
:1013F80007F0A4C008F0A5C009F0A6C00AF0A7C06D
:101408000BF024EC2DF0D8A00CEF0AF00EEF0AF048
:101418001EEF0AF0000196B114EF0AF016EF0AF079
:101428001EEF0AF0000EA46F000EA56F000EA66F47
:10143800000EA76FAAC04AF0ABC04BF0ACC04CF08E
:10144800ADC04DF0A4C04EF0A5C04FF0A6C050F0FE
:10145800A7C051F06AEC17F04AC0A0F04BC0A1F049
:101468004CC0A2F04DC0A3F0A0C04AF0A1C04BF000
:10147800A2C04CF0A3C04DF0000E356E000E366EC3
:10148800200E376E410E386E92C031F093C032F0A4
:1014980094C033F095C034F0CAEC19F031C04EF066
:1014A80032C04FF033C050F034C051F090EC28F007
:1014B800D8A061EF0AF063EF0AF08CEF0AF00001A0
:1014C800AE4BAF2B92C031F093C032F094C033F0E2
:1014D80095C034F0000E356E000E366E200E376E55
:1014E800410E386ECAEC19F031C092F032C093F058
:1014F80033C094F034C095F0660E00019E19D8A44C
:1015080088EF0AF08AEF0AF08CEF0AF0904B912BE3
:1015180092C0B2F093C0B3F094C0B4F095C0B5F0E7
:10152800650E00019E19D8B49CEF0AF09EEF0AF0F0
:10153800A4EF0AF0AEC08EF0AFC08FF0A8EF0AF0AB
:10154800000E8F6F000E8E6F000E8D6F000E8C6F69
:10155800000E8B6F000E8A6F000EA96F000EA86F29
:10156800A4EF0BF0A0C018F0A1C019F0A2C01AF0A7
:10157800A3C01BF0B2C01CF0B3C01DF0B4C01EF075
:10158800B5C01FF0DFEC1BF018C031F019C032F005
:101598001AC033F01BC034F033EC22F031C0A4F091
:1015A80032C0A5F033C0A6F034C0A7F0A4C068F0DC
:1015B800A5C069F0A6C06AF0A7C06BF00CEC28F0D3
:1015C80068C096F069C097F05AB8EDEF0AF0EFEFEF
:1015D8000AF00DEF0BF0000196519711D8A4F7EF20
:1015E8000AF0F9EF0AF00DEF0BF0670E9F19D8A477
:1015F80000EF0BF002EF0BF00DEF0BF08FBF09EFD0
:101608000BF007EF0BF00DEF0BF08A4B8B2B58EF1D
:101618000BF000018C518D11D8A415EF0BF017EFCA
:101628000BF041EF0BF08FBF1EEF0BF01CEF0BF030
:1016380041EF0BF0200EB025D96E030EB121DA6E02
:101648002E0EDF6EB04BB12B9C07D8A09D07000E65
:101658008D6F010E8C6F41EF0BF0200EB025D96E07
:10166800030EB121DA6E300EDF6EB04BB12B9C0742
:10167800D8A09D078A07D8A08B078A518B11D8A4B8
:1016880048EF0BF04AEF0BF031EF0BF0200EB025CE
:10169800D96E030EB121DA6E9651300FDF6EB04B62
:1016A800B12B9C07D8A09D07A0C060F0A1C061F035
:1016B800A2C062F0A3C063F0B2C035F0B3C036F088
:1016C800B4C037F0B5C038F0A4C031F0A5C032F0CE
:1016D800A6C033F0A7C034F0CAEC19F031C064F0EA
:1016E80032C065F033C066F034C067F0A9EC31F061
:1016F80060C0A0F061C0A1F062C0A2F063C0A3F016
:10170800B2C018F0B3C019F0B4C01AF0B5C01BF0DD
:10171800000E1C6E000E1D6E200E1E6E410E1F6EFA
:10172800DFEC1BF018C0B2F019C0B3F01AC0B4F067
:101738001BC0B5F000018E07D8A08F07A84BA92BB6
:101748009051A85DA951800A796F9151800A795901
:10175800D8B0B1EF0BF0B3EF0BF0C1EF0BF0B1BFA6
:10176800BFEF0BF0B15109E14B0EB05DD8A0BFEF50
:101778000BF0C1EF0BF0B6EF0AF08C518D11D8A425
:10178800C8EF0BF0CAEF0BF0DBEF0BF05AA8CFEF66
:101798000BF0D1EF0BF0DBEF0BF0200EB025D96E7C
:1017A800030EB121DA6E2E0EDF6EB04BB12B200E78
:1017B800B025D96E030EB121DA6E000EDF6E650E0C
:1017C8009E19D8A4EAEF0BF0ECEF0BF045EF07F009
:1017D800000EA96F4F0EA86F200EA825D96E030E14
:1017E800A921DA6E000EDF6E000E996F000E986F59
:1017F800AFBF03EF0CF001EF0CF00BEF0CF0000E95
:10180800996F010E986FAE6DAF1FD8B0AF2B000E59
:101818009B6F020E9A6F3CEF0CF0A807D8A0A9079F
:10182800200EA825D96E030EA921DA6EAEC004F0E9
:10183800AFC005F0000E076E0A0E066ECCEC2CF059
:101848000450300FDF6EAEC004F0AFC005F0000EDC
:10185800076E0A0E066EA7EC2BF004C0AEF005C0AA
:10186800AFF000019A07D8A09B079C07D8A09D0756
:10187800AE51AF11D8A443EF0CF045EF0CF011EFC7
:101888000CF09BBF52EF0CF09B5106E19A05D8B0C3
:1018980050EF0CF052EF0CF011EF0CF0A807D8A0A5
:1018A800A90798519911D8A45CEF0CF05EEF0CF0E1
:1018B80064EF0CF0000E856F2B0E846F68EF0CF050
:1018C800000E856F2D0E846F200EA825D96E030E8D
:1018D800A921DA6E84C0DFFF9C07D8A09D07A8075E
:1018E800D8A0A907BF0E796FFF0E7A6F78517B6F6A
:1018F8007C6B79517B277A517C237C510AE11A0E43
:101908007B5DD8A08AEF0CF08DEF0CF0010E8EEF06
:101918000CF0000E886F896B88518911D8A497EF55
:101928000CF099EF0CF09FEF0CF0000E876F650E2E
:10193800866FA3EF0CF0000E876F450E866F200EA2
:10194800A825D96E030EA921DA6E86C0DFFF9C0791
:10195800D8A09D07200EB025046E030EB121056E98
:10196800200EA825066E030EA921076E52EC31F051
:1019780045EF07F0120068C070F069C071F06AC0E6
:1019880072F06BC073F070C09EF071C09FF072C0AF
:10199800A0F073C0A1F09EC06CF09FC06DF0A0C015
:1019A8006EF0A1C06FF0200EE0EF0CF00001D890AF
:1019B8006F336E336D336C33E82EDAEF0CF06CC096
:1019C80088F06DC089F06EC08AF06FC08BF0A19F5F
:1019D800800EA05D4C0EA159D8A0F5EF0CF0F7EFE2
:1019E8000CF060EF0DF068C004F069C005F06AC043
:1019F80006F06BC007F012EC29F004500510D8A4CB
:101A080008EF0DF00AEF0DF014EF0DF068C068F064
:101A180069C069F06AC06AF06BC06BF0D4EF10F06F
:101A2800DD0EF66E720EF76E0900F5CF4AF009006A
:101A3800F5CF4BF00900F5CF4CF00A00F5CF4DF08B
:101A4800000E4E6E000E4F6E800E506E030E516EDD
:101A58006AEC17F04AC09AF04BC09BF04CC09CF05F
:101A68004DC09DF00001885189118A118B11D8A4AD
:101A780040EF0DF042EF0DF04CEF0DF09AC068F01A
:101A88009BC069F09CC06AF09DC06BF0D4EF10F069
:101A98009AC004F09BC005F09CC006F09DC007F0FA
:101AA80029EC32F004C068F005C069F006C06AF09D
:101AB80007C06BF0D4EF10F0E00EA05D3E0EA15908
:101AC800D8B069EF0DF06BEF0DF07CEF0DF0800EE4
:101AD800A05D390EA159D8B074EF0DF076EF0DF076
:101AE80078EF0DF00AEF0DF098699969BEEF0EF0E6
:101AF80068C031F069C032F06AC033F06BC034F0AE
:101B080060EC32F031C068F032C069F033C06AF07E
:101B180034C06BF0980E0001A05D3F0EA159D8B0FB
:101B280098EF0DF09AEF0DF03FEF0EF0300EA05D3C
:101B38003F0EA159D8B0A3EF0DF0A5EF0DF0FBEFC4
:101B48000DF0000E996F000E986F000E4E6E000E8D
:101B58004F6E800E506EBF0E516E000E356E000E29
:101B6800366E000E376E400E386E68C031F069C0B0
:101B780032F06AC033F06BC034F0CAEC19F031C0EF
:101B88004AF032C04BF033C04CF034C04DF06AEC30
:101B980017F04AC018F04BC019F04CC01AF04DC0ED
:101BA8001BF0000E4E6E000E4F6E000E506E400E73
:101BB800516E68C04AF069C04BF06AC04CF06BC007
:101BC8004DF06AEC17F04AC01CF04BC01DF04CC039
:101BD8001EF04DC01FF0DFEC1BF018C068F019C0F4
:101BE80069F01AC06AF01BC06BF0BEEF0EF0000E71
:101BF800996F010E986F000E4E6E000E4F6E800E9C
:101C0800506EBF0E516E68C04AF069C04BF06AC092
:101C18004CF06BC04DF06AEC17F04AC018F04BC09E
:101C280019F04CC01AF04DC01BF0000E4E6E000E9D
:101C38004F6E800E506E3F0E516E68C04AF069C0FC
:101C48004BF06AC04CF06BC04DF06AEC17F04AC01C
:101C58001CF04BC01DF04CC01EF04DC01FF0DFEC57
:101C68001BF018C068F019C069F01AC06AF01BC0F0
:101C78006BF0BEEF0EF01C0EA05D400EA159D8B05F
:101C880048EF0EF04AEF0EF0A0EF0EF0000E996F3D
:101C9800020E986F000E4E6E000E4F6EC00E506E04
:101CA800BF0E516E68C04AF069C04BF06AC04CF074
:101CB8006BC04DF06AEC17F04AC018F04BC019F031
:101CC8004CC01AF04DC01BF0000E4E6E000E4F6E49
:101CD800800E506E3F0E516E000E356E000E366E41
:101CE800C00E376E3F0E386E68C031F069C032F0F2
:101CF8006AC033F06BC034F0CAEC19F031C04AF056
:101D080032C04BF033C04CF034C04DF06AEC17F0E1
:101D18004AC01CF04BC01DF04CC01EF04DC01FF057
:101D2800DFEC1BF018C068F019C069F01AC06AF03F
:101D38001BC06BF0BEEF0EF0000E996F030E986F8C
:101D4800000E186E000E196E800E1A6EBF0E1B6EF6
:101D580068C01CF069C01DF06AC01EF06BC01FF09F
:101D6800DFEC1BF018C068F019C069F01AC06AF0FF
:101D78001BC06BF068C031F069C032F06AC033F044
:101D88006BC034F068C035F069C036F06AC037F00F
:101D98006BC038F0CAEC19F031C09AF032C09BF031
:101DA80033C09CF034C09DF09AC031F09BC032F033
:101DB8009CC033F09DC034F09AC035F09BC036F01B
:101DC8009CC037F09DC038F0CAEC19F031C094F0CF
:101DD80032C095F033C096F034C097F0B50EF66E69
:101DE800720EF76E0900F5CF4EF00900F5CF4FF0EF
:101DF8000900F5CF50F00A00F5CF51F094C035F046
:101E080095C036F096C037F097C038F0BD0EF66E24
:101E1800720EF76E0900F5CF31F00900F5CF32F0F8
:101E28000900F5CF33F00A00F5CF34F0CAEC19F009
:101E380031C04AF032C04BF033C04CF034C04DF0E2
:101E48006AEC17F04AC08CF04BC08DF04CC08EF095
:101E58004DC08FF0AD0EF66E720EF76E0900F5CF1D
:101E68004EF00900F5CF4FF00900F5CF50F00A0009
:101E7800F5CF51F094C035F095C036F096C037F0E4
:101E880097C038F08CC031F08DC032F08EC033F07E
:101E98008FC034F0CAEC19F031C04AF032C04BF0B0
:101EA80033C04CF034C04DF06AEC17F04AC074F0FF
:101EB8004BC075F04CC076F04DC077F074C031F06F
:101EC80075C032F076C033F077C034F09AC035F080
:101ED8009BC036F09CC037F09DC038F0CAEC19F0B2
:101EE80031C080F032C081F033C082F034C083F05A
:101EF800B10EF66E720EF76E0900F5CF4EF00900BE
:101F0800F5CF4FF00900F5CF50F00A00F5CF51F0AA
:101F180094C035F095C036F096C037F097C038F0C9
:101F2800B90EF66E720EF76E0900F5CF31F00900A2
:101F3800F5CF32F00900F5CF33F00A00F5CF34F0D1
:101F4800CAEC19F031C04AF032C04BF033C04CF043
:101F580034C04DF06AEC17F04AC08CF04BC08DF0DD
:101F68004CC08EF04DC08FF08CC031F08DC032F077
:101F78008EC033F08FC034F094C035F095C036F081
:101F880096C037F097C038F0CAEC19F031C084F029
:101F980032C085F033C086F034C087F0000199BFA5
:101FA800DAEF0FF0D8EF0FF022EF10F068C035F03D
:101FB80069C036F06AC037F06BC038F084C04EF0A4
:101FC80085C04FF086C050F087C051F080C04AF0FD
:101FD80081C04BF082C04CF083C04DF06AEC17F022
:101FE8004AC031F04BC032F04CC033F04DC034F031
:101FF800CAEC19F031C090F032C091F033C092F0C1
:1020080034C093F068C060F069C061F06AC062F0E3
:102018006BC063F090C064F091C065F092C066F048
:1020280093C067F0A9EC31F060C068F061C069F056
:1020380062C06AF063C06BF0D4EF10F068C035F08E
:1020480069C036F06AC037F06BC038F084C04EF013
:1020580085C04FF086C050F087C051F080C04AF06C
:1020680081C04BF082C04CF083C04DF06AEC17F091
:102078004AC031F04BC032F04CC033F04DC034F0A0
:10208800CAEC19F031C090F032C091F033C092F030
:1020980034C093F098C06CF099C06DF00001D890EE
:1020A8006C376D37D8906C376D37C10E6C25F66E6E
:1020B800720E6D21F76E0900F5CF64F00900F5CFB7
:1020C80065F00900F5CF66F00A00F5CF67F090C01B
:1020D80060F091C061F092C062F093C063F0A9EC27
:1020E80031F060C078F061C079F062C07AF063C006
:1020F8007BF068C064F069C065F06AC066F06BC0C8
:1021080067F078C060F079C061F07AC062F07BC097
:1021180063F0A9EC31F060C07CF061C07DF062C072
:102128007EF063C07FF098C06CF099C06DF000013C
:10213800D8906C376D37D8906C376D37D10E6C25C9
:10214800F66E720E6D21F76E0900F5CF60F009008A
:10215800F5CF61F00900F5CF62F00A00F5CF63F022
:102168007CC064F07DC065F07EC066F07FC067F01B
:10217800A9EC31F060C09AF061C09BF062C09CF09D
:1021880063C09DF00001885189118A118B11D8A470
:10219800D0EF10F0D2EF10F04CEF0DF042EF0DF051
:1021A8001200A6C004F0A7C005F0A8C006F0A9C098
:1021B80007F012EC29F004500510D8B4E6EF10F03F
:1021C800E8EF10F0FBEF10F0A2C004F0A3C005F098
:1021D800A4C006F0A5C007F012EC29F004500510C1
:1021E800D8A4F9EF10F0FBEF10F017EF11F0A6C02C
:1021F8004AF0A7C04BF0A8C04CF0A9C04DF0A2C04F
:102208004EF0A3C04FF0A4C050F0A5C051F06AEC46
:1022180017F04AC0A2F04BC0A3F04CC0A4F04DC0C8
:10222800A5F055EF14F0A6C0C6F0A7C0C7F0A8C027
:10223800C8F0A9C0C9F0C6C0CEF0C7C0CFF0C8C0AA
:10224800D0F0C9C0D1F0A2C0C6F0A3C0C7F0A4C0E6
:10225800C8F0A5C0C9F0C6C0D2F0C7C0D3F0C8C086
:10226800D4F0C9C0D5F0800E0001D01909E13F0EA5
:10227800D119CE11CF11D8A444EF11F046EF11F0C7
:102288005AEF11F0A2C068F0A3C069F0A4C06AF0C8
:10229800A5C06BF0BFEC0CF068C0A2F069C0A3F059
:1022A8006AC0A4F06BC0A5F055EF14F0CEC0AAF038
:1022B800CFC0ABF0D0C0ACF0D1C0ADF01F0E6AEF0C
:1022C80011F0D890AD33AC33AB33AA33E82E65EFB9
:1022D80011F0020EAA15AE6F000EAB15AF6F000E0F
:1022E800AC15B06F000EAD15B16FD2C0B2F0D3C04F
:1022F800B3F0D4C0B4F0D5C0B5F0200E89EF11F01A
:10230800D890B533B433B333B233E82E84EF11F039
:10231800010EB215B66F000EB315B76F000EB415E7
:10232800B86F000EB515B96FAE51B611D66FAF5173
:10233800B711D76FB051B811D86FB151B911D96F62
:10234800D19FD59FD251D311D411D511D8A4AFEFB5
:1023580011F0B1EF11F001EF12F0D1EF11F0A2C0BE
:10236800A2F0A3C0A3F0A4C0A4F0A5C0A5F055EFA7
:1023780014F0DB0EA26F0F0EA36F490EA46F400E70
:10238800A56F55EF14F0DB0EA26F0F0EA36F490E69
:10239800A46FC00EA56F55EF14F0D6C0AAF0D7C031
:1023A800ABF0D8C0ACF0D9C0ADF0AD51000AD8B48C
:1023B800FAEF11F001EF12F0AB51000AD8B4E7EFD1
:1023C80011F001EF12F0AA51000AD8B4B3EF11F0DE
:1023D800010AD8B4B3EF11F0030AD8B4BDEF11F075
:1023E800010AD8B4C7EF11F001EF12F0AC51000A9E
:1023F800D8B4E0EF11F001EF12F0CE51CF11D011A7
:10240800D111D8A40AEF12F00CEF12F027EF12F056
:10241800D6B111EF12F013EF12F01DEF12F0DB0E30
:10242800A26F0F0EA36FC90EA46F3F0EA56F55EFD5
:1024380014F0DB0EA26F0F0EA36FC90EA46FBF0EB0
:10244800A56F55EF14F0800ED01909E17F0ED11950
:10245800CE11CF11D8A433EF12F035EF12F0F5EF0B
:1024680012F0800ED41909E17F0ED519D211D311BB
:10247800D8A441EF12F043EF12F0C5EF12F06DEF60
:1024880012F0DB0EA26F0F0EA36F490EA46F3F0E62
:10249800A56F55EF14F0DB0EA26F0F0EA36F490E58
:1024A800A46FBF0EA56F55EF14F0E40EA26FCB0E0C
:1024B800A36F160EA46F400EA56F55EF14F0E40E2F
:1024C800A26FCB0EA36F160EA46FC00EA56F55EFAB
:1024D80014F0D6C0AAF0D7C0ABF0D8C0ACF0D9C0C1
:1024E800ADF0AD51000AD8B496EF12F0F5EF12F046
:1024F800AB51000AD8B483EF12F0F5EF12F0AA51ED
:10250800000AD8B445EF12F0010AD8B44FEF12F020
:10251800030AD8B459EF12F0010AD8B463EF12F0E5
:10252800F5EF12F0AC51000AD8B47CEF12F0F5EFD9
:1025380012F0000EA26F000EA36F000EA46F000E23
:10254800A56F55EF14F0000EA26F000EA36F000EDA
:10255800A46F800EA56F55EF14F0DB0EA26F0F0E5F
:10256800A36F490EA46F400EA56F55EF14F0DB0E54
:10257800A26F0F0EA36F490EA46FC00EA56F55EF83
:1025880014F0D6C0AAF0D7C0ABF0D8C0ACF0D9C010
:10259800ADF0AD51000AD8B4EEEF12F0F5EF12F03D
:1025A800AB51000AD8B4DBEF12F0F5EF12F0AA51E4
:1025B800000AD8B49DEF12F0010AD8B4A7EF12F0C0
:1025C800030AD8B4B1EF12F0010AD8B4BBEF12F085
:1025D800F5EF12F0AC51000AD8B4D4EF12F0F5EFD1
:1025E80012F0000ECE25AA6F000ECF21AB6F000EA1
:1025F800D021AC6F0D0ED121AD6FD251AA5DD35150
:10260800AB59D451AC59D551AD59D8A00EEF13F0F0
:1026180010EF13F01EEF13F0800ED41909E17F0EAE
:10262800D519D211D311D8A41CEF13F01EEF13F053
:1026380039EF13F0D6B123EF13F025EF13F02FEF96
:1026480013F0DB0EA26F0F0EA36FC90EA46F3F0E1F
:10265800A56F55EF14F0DB0EA26F0F0EA36FC90E16
:10266800A46FBF0EA56F55EF14F0D6A33EEF13F07D
:1026780040EF13F065EF13F0000ED225AA6F000E9D
:10268800D321AB6F000ED421AC6F0D0ED521AD6FE9
:10269800CE51AA5DCF51AB59D051AC59D151AD599A
:1026A800D8B059EF13F05BEF13F065EF13F0000E9D
:1026B800CA6F000ECB6F000ECC6F000ECD6F28EFE7
:1026C80014F0A2C018F0A3C019F0A4C01AF0A5C055
:1026D8001BF0A6C01CF0A7C01DF0A8C01EF0A9C022
:1026E8001FF0DFEC1BF018C031F019C032F01AC02F
:1026F80033F01BC034F060EC32F031C0BAF032C0B5
:10270800BBF033C0BCF034C0BDF0BAC068F0BBC089
:1027180069F0BCC06AF0BDC06BF0BFEC0CF068C0DB
:10272800CAF069C0CBF06AC0CCF06BC0CDF028EF1E
:1027380014F0CAC0A2F0CBC0A3F0CCC0A4F0CDC0A6
:10274800A5F055EF14F0CAC004F0CBC005F0CCC01A
:1027580006F0CDC007F029EC32F004C0A2F005C0A5
:10276800A3F006C0A4F007C0A5F055EF14F02E0E94
:102778004E6EBD0E4F6EBB0E506E330E516ECAC0FC
:102788004AF0CBC04BF0CCC04CF0CDC04DF06AEC59
:1027980017F04AC0BEF04BC0BFF04CC0C0F04DC0EF
:1027A800C1F0DB0E0001606F0F0E616F490E626FA2
:1027B800400E636FBEC064F0BFC065F0C0C066F075
:1027C800C1C067F0A9EC31F060C0A2F061C0A3F00D
:1027D80062C0A4F063C0A5F055EF14F02E0E4E6E43
:1027E800BD0E4F6EBB0E506E330E516ECAC04AF00E
:1027F800CBC04BF0CCC04CF0CDC04DF06AEC17F01C
:102808004AC0C2F04BC0C3F04CC0C4F04DC0C5F0C4
:10281800C2C04AF0C3C04BF0C4C04CF0C5C04DF0B4
:10282800DB0E4E6E0F0E4F6E490E506EC00E516E7F
:102838006AEC17F04AC0A2F04BC0A3F04CC0A4F059
:102848004DC0A5F055EF14F0D6C0AAF0D7C0ABF034
:10285800D8C0ACF0D9C0ADF00001AD51000AD8B471
:102868004EEF14F0F2EF13F0AB51000AD8B43FEF7B
:1028780014F0F2EF13F0AA51000AD8B49DEF13F048
:10288800010AD8B4A7EF13F0030AD8B4BBEF13F0CA
:10289800F2EF13F0AC51000AD8B438EF14F0F2EFAD
:1028A80013F012007F0E046E010E056E180E066EF0
:1028B800BCEC2FF00009D8B464EF14F066EF14F004
:1028C80069EF17F06B0E01017F19D8A46EEF14F0B1
:1028D80070EF14F0B9EF15F0500E8019D8A477EF07
:1028E80014F079EF14F0ACEF14F0300E0001606FC3
:1028F800EB0E616F01018151640DF3CF62F0F4CFEB
:1029080063F082510A0DF35000016227F4506323EB
:102918000101835100016227000E63236051622781
:102928006151632362C00AF063C00BF0000E0BBE56
:10293800FF0E0C6E0D6E010E18EC25F00AC0F6F1B4
:102948000BC0F7F10CC0F8F10DC0F9F169EF17F001
:10295800490E8019D8A4B3EF14F0B5EF14F0F4EFD2
:1029680014F0600E0001606FEB0E616F0101815180
:10297800640DF3CF62F0F4CF63F082510A0DF35087
:1029880000016227F4506323605162276151632379
:1029980062C00AF063C00BF0000E0BBEFF0E0C6E97
:1029A8000D6E010E18EC25F00AC031F00BC032F0A4
:1029B8000CC033F00DC034F068C135F069C136F091
:1029C8006AC137F06BC138F0CAEC19F031C0F2F1C6
:1029D80032C0F3F133C0F4F134C0F5F169EF17F008
:1029E800440E8019D8A4FBEF14F0FDEF14F0B7EFF4
:1029F80015F0CD0E356ECC0E366ECC0E376E3D0E04
:102A0800386ED00E0001606FFF0E616F01018251B8
:102A18000001626F636B605162276151632362C07A
:102A28000AF063C00BF0000E0BBEFF0E0C6E0D6EAD
:102A3800010E18EC25F00AC031F00BC032F00CC0C2
:102A480033F00DC034F0CAEC19F031C04EF032C08A
:102A58004FF033C050F034C051F0D00E0001646F15
:102A6800FF0E656F010181510001666F676B64514C
:102A780066276551672366C00AF067C00BF0000E31
:102A88000BBEFF0E0C6E0D6E010E18EC25F00AC081
:102A98004AF00BC04BF00CC04CF00DC04DF06AEC86
:102AA80017F04AC068F04BC069F04CC06AF04DC0DE
:102AB8006BF00A0E356ED70E366E230E376E3C0E4F
:102AC800386ED00E0001606FFF0E616F01018351F7
:102AD8000001626F636B605162276151632362C0BA
:102AE8000AF063C00BF0000E0BBEFF0E0C6E0D6EED
:102AF800010E18EC25F00AC031F00BC032F00CC002
:102B080033F00DC034F0CAEC19F031C04EF032C0C9
:102B18004FF033C050F034C051F068C04AF069C07B
:102B28004BF06AC04CF06BC04DF06AEC17F04AC02D
:102B380018F04BC019F04CC01AF04DC01BF068C11A
:102B48001CF069C11DF06AC11EF06BC11FF0DFECFB
:102B58001BF018C0EEF119C0EFF11AC0F0F11BC05C
:102B6800F1F169EF17F069EF17F0640E7F19D8A437
:102B7800C0EF15F0C2EF15F075EF16F05A0E801978
:102B8800D8A4C9EF15F0CBEF15F0E7EF15F0815198
:102B9800640DF3CF60F0F4CF61F082510A0DF35069
:102BA80000016027F450612301018351000160276F
:102BB800000E6123300E60250101FA6FEB0E000153
:102BC80061210101FB6F530E8019D8A4EEEF15F0B7
:102BD800F0EF15F000EF16F0000E7E6F010E000109
:102BE800FA6F000E0101706F000E716F000E726FA8
:102BF800000E736F69EF17F0460E8019D8A407EF1F
:102C080016F009EF16F015EF16F0000E706F000EB3
:102C1800716FC00E726F400E736F000E7E6F69EF9A
:102C280017F0520E8019D8A41CEF16F01EEF16F0FC
:102C38002AEF16F0000E706F000E716F000E726FA3
:102C4800C10E736F000E7E6F69EF17F0440E801986
:102C5800D8A431EF16F033EF16F03FEF16F0010E5F
:102C68007E6F000E706F000E716F000E726F000E97
:102C7800736F69EF17F0450E8019D8A446EF16F068
:102C880048EF16F054EF16F0020E7E6F000E706FCC
:102C9800000E716F000E726F000E736F69EF17F000
:102CA800480E8019D8A45BEF16F05DEF16F069EFB7
:102CB80017F00001FB51D8B464EF16F067EF16F077
:102CC800010E68EF16F0000EFB6FFB05D8A46FEF3E
:102CD80016F071EF16F0B7EF15F009EC2CF069EF6C
:102CE80017F0730E7F19D8A47CEF16F07EEF16F05C
:102CF800EBEF16F0500E8019D8A485EF16F087EF89
:102D080016F0B0EF16F0F00E0001606FFD0E616F67
:102D1800010181510A0DF3CF62F0F4CF63F08251C3
:102D280000016227000E632360516227615163230B
:102D380062C00AF063C00BF0000E0BBEFF0E0C6EF3
:102D48000D6E010E18EC25F00AC070F10BC071F180
:102D58000CC072F10DC073F14E0E01018019D8A498
:102D6800B8EF16F0BAEF16F069EF17F0B00E0001E1
:102D7800606F010E616F81C104F0056AFF0E076E76
:102D8800F60E066EBCEC32F0010182510001626F52
:102D9800636B0450622705506323605162276151B9
:102DA800632362C00AF063C00BF0000E0BBEFF0E77
:102DB8000C6E0D6E010E18EC25F00AC070F10BC0F8
:102DC80071F10CC072F10DC073F169EF17F0690E63
:102DD8007F19D8A4F2EF16F0F4EF16F00BEF17F006
:102DE8004D0E8019D8A4FBEF16F0FDEF16F00BEF8F
:102DF80017F00001FC51D8B404EF17F007EF17F0F3
:102E0800010E08EF17F0000EFC6F69EF17F0700E57
:102E18007F19D8A412EF17F014EF17F03BEF17F053
:102E28004D0E8019D8A41BEF17F01DEF17F03BEFDC
:102E380017F08151640DF3CF60F0F4CF61F0825147
:102E48000A0DF35000016027F450612301018351FA
:102E580000016027000E6123300E60250101FC6F20
:102E6800EB0E000161210101FD6F69EF17F06F0E94
:102E78007F19D8A442EF17F044EF17F069EF17F065
:102E88004D0E8019D8A44BEF17F04DEF17F069EFEE
:102E980017F08151640DF3CF60F0F4CF61F08251E7
:102EA8000A0DF35000016027F4506123010183519A
:102EB80000016027000E6123300E602501017A6F42
:102EC800EB0E0001612101017B6F12004D50800B58
:102ED800566E4D504D24586E4CAE75EF17F077EF87
:102EE80017F078EF17F058805850D8B47EEF17F0E5
:102EF80080EF17F095EF17F05828D8A486EF17F051
:102F080088EF17F090EF17F0000E4A6E000E4B6E28
:102F1800000E4C6E000E4D6E4C8E000E4D6E9DEFE9
:102F280017F0000E4A6E000E4B6E000E4C6E000E2F
:102F38004D6E5150800B576E56505718D8B4A7EFA6
:102F480017F0A9EF17F0AAEF17F0568C515051243B
:102F5800576E50AEB2EF17F0B4EF17F0B5EF17F0A9
:102F680057805750D8B4BBEF17F0BDEF17F0D2EF2A
:102F780017F05728D8A4C3EF17F0C5EF17F0CDEF17
:102F880017F0000E4E6E000E4F6E000E506E000EC3
:102F9800516E508E000E516EDAEF17F0000E4E6E25
:102FA800000E4F6E000E506E000E516E5850575C5A
:102FB800D8B0E1EF17F0E3EF17F00AEF18F056ACCE
:102FC800E8EF17F0EAEF17F0ECEF17F0800E561A5B
:102FD80058C059F057C058F059C057F04AC059F076
:102FE8004EC04AF059C04EF04BC059F04FC04BF09C
:102FF80059C04FF04CC059F050C04CF059C050F077
:103008004DC059F051C04DF059C051F0000E596EE5
:10301800585057C052F0536A525E000E535A53BE6E
:103028001FEF18F0535009E11A0E525CD8A01FEF99
:1030380018F021EF18F058EF18F04A504B104C10C8
:103048004D10D8A42AEF18F02DEF18F0010E2EEF2E
:1030580018F0000E596E000E4A6E000E4B6E000EF0
:103068004C6E000E4D6E57C058F061EF18F059A025
:1030780040EF18F042EF18F048EF18F0D8905930A8
:103088000109596E4AEF18F0D89059324AA04FEF0B
:1030980018F051EF18F052EF18F0598E4D344D32A8
:1030A8004C324B324A32582A5750585CD8A05FEFFE
:1030B80018F061EF18F03BEF18F056BC66EF18F007
:1030C80068EF18F0A8EF18F05850D8A46EEF18F071
:1030D80070EF18F07AEF18F0000E4A6E000E4B6E83
:1030E800000E4C6E000E4D6EC9EF19F04E504A2678
:1030F8004F504B2250504C2251504D224DA087EF3B
:1031080018F089EF18F035EF19F059A08EEF18F084
:1031180090EF18F096EF18F0D89059300109596ED1
:1031280098EF18F0D89059324AA09DEF18F09FEF09
:1031380018F0A0EF18F0598E4D344D324C324B3206
:103148004A32582A35EF19F04E504A5C4F504B58C6
:1031580050504C584D50800A526E5150800A525867
:10316800D8B0B9EF18F0BBEF18F0E6EF18F04A50F6
:103178004E5C526E4B504F58536E4C505058546ED4
:103188004D505158556EFF0E52244A6EFF0E532073
:103198004B6EFF0E54204C6EFF0E55204D6E800E68
:1031A800561A596C5950D8A4DCEF18F0DEEF18F015
:1031B800EEEF18F0010E4A26000E4B224C224D224B
:1031C800EEEF18F04E504A5E4F504B5A50504C5A42
:1031D80051504D5A4A504B104C104D10D8A4F7EF8F
:1031E80018F0F9EF18F02EEF19F05950D8A4FFEFA6
:1031F80018F001EF19F02EEF19F0000E4A6E000ECC
:103208004B6E000E4C6E000E4D6EC9EF19F0D89043
:103218004A364B364C364D3659AE15EF19F017EF86
:1032280019F018EF19F04A8059A01DEF19F01FEF97
:1032380019F023EF19F0D880593625EF19F0D890F6
:1032480059365850D8B42BEF19F02DEF19F02EEF4E
:1032580019F058064CAE33EF19F035EF19F00BEFB3
:1032680019F0000E576E59AE3CEF19F03EEF19F009
:1032780056EF19F059C052F07F0E5216D8B447EFE6
:1032880019F049EF19F04DEF19F0010E576E56EF8E
:1032980019F04AA052EF19F054EF19F056EF19F04F
:1032A80049EF19F05750D8B45CEF19F05EEF19F0F8
:1032B80089EF19F0010E4A26000E4B224C224D22AE
:1032C8004DA069EF19F06BEF19F089EF19F04AC0BA
:1032D80052F04BC053F04CC054F04DC055F055342B
:1032E800553254325332523252C04AF053C04BF026
:1032F80054C04CF055C04DF05828D8B486EF19F09A
:1033080088EF19F089EF19F0582A5828D8B48FEFA8
:1033180019F091EF19F099EF19F05850D8A497EFD8
:1033280019F099EF19F0ABEF19F0000E4A6E000E84
:103338004B6E000E4C6E000E4D6E5850D8A4A7EF81
:1033480019F0A9EF19F0ABEF19F0000E566E58A05E
:10335800B0EF19F0B2EF19F0B5EF19F04C8EB6EFE7
:1033680019F04C9ED89058304D6E56AEBEEF19F0FD
:10337800C0EF19F0C1EF19F04D8E4AC04AF04BC0AA
:103388004BF04CC04CF04DC04DF012003450800B47
:103398003D6E34503424436E33AED5EF19F0D7EF79
:1033A80019F0D8EF19F043804350D8B4DEEF19F084
:1033B800E0EF19F0F3EF19F04328D8A4E6EF19F07D
:1033C800E8EF19F0F0EF19F0000E316E000E326ED2
:1033D800000E336E000E346E338EFBEF19F0000EC4
:1033E800316E000E326E000E336E000E346E3850A1
:1033F800800B3D1A38503824426E37AE06EF1AF06B
:1034080008EF1AF009EF1AF042804250D8B40FEFD3
:103418001AF011EF1AF024EF1AF04228D8A417EF87
:103428001AF019EF1AF021EF1AF0000E356E000E9F
:10343800366E000E376E000E386E378E2CEF1AF08F
:10344800000E356E000E366E000E376E000E386EAA
:103458004250D8B432EF1AF034EF1AF03CEF1AF0B9
:103468004350D8A43AEF1AF03CEF1AF046EF1AF09E
:10347800000E316E000E326E000E336E000E346E8A
:10348800DEEF1BF037503102F3CF48F0F4CF49F0AC
:1034980048503E6E3F6A406A416A4950446E456AE8
:1034A800466A476A36503202F3CF48F0F4CF49F003
:1034B80048503E26000E3F224022412249504426D1
:1034C800000E45224622472235503302F3CF48F0FA
:1034D800F4CF49F048503E26000E3F2240224122B8
:1034E80049504426000E45224622472240C041F05A
:1034F8003FC040F03EC03FF03E6A35503202F3CF45
:1035080048F0F4CF49F048503E2649503F22000E7B
:103518004022000E412236503102F3CF48F0F4CF5A
:1035280049F048503E2649503F22000E4022000EE6
:10353800412240C041F03FC040F03EC03FF03E6AEB
:1035480035503102F3CF48F0F4CF49F048503E26C9
:1035580049503F22000E4022000E412237503202CD
:10356800F3CF48F0F4CF49F048504426495045225B
:10357800000E4622000E472236503302F3CF48F0A1
:10358800F4CF49F04850442649504522000E4622BF
:10359800000E472237503302F3CF48F0F4CF49F0FA
:1035A8004850396E49503A6E3B6A3C6A3BC03CF021
:1035B8003AC03BF039C03AF0396A395044263A509B
:1035C80045223B5046223C5047223EC039F03FC07E
:1035D8003AF040C03BF041C03CF0190EF9EF1AF048
:1035E800D8903C323B323A323932E82EF4EF1AF0B6
:1035F800395044263A5045223B5046223C504722F7
:1036080040C041F03FC040F03EC03FF03E6A4250EB
:1036180043C039F03A6A3926000E3A22820E39241C
:10362800486EFF0E3A20496E2FEF1BF0D8904436B3
:1036380045364636473641AE24EF1BF026EF1BF0E1
:1036480027EF1BF04480D8903E363F36403641364F
:103658004806D8A0490646AE34EF1BF036EF1BF0FB
:103668001AEF1BF0000E426E41AE3DEF1BF03FEF2C
:103678001BF063EF1BF0FF0E3E14396EFF0E3F1474
:103688003A6EFF0E40143B6E7F0E41143C6E39506B
:103698003A103B103C10D8B454EF1BF056EF1BF017
:1036A8005AEF1BF0010E426E63EF1BF044A05FEF70
:1036B8001BF061EF1BF063EF1BF056EF1BF042505D
:1036C800D8B469EF1BF06BEF1BF08FEF1BF0010E06
:1036D8004426000E45224622472247A076EF1BF0DB
:1036E80078EF1BF08FEF1BF044C039F045C03AF07B
:1036F80046C03BF047C03CF03C343C323B323A32A7
:10370800393239C044F03AC045F03BC046F03CC0BD
:1037180047F0484A492A49BE9AEF1BF0495008E148
:103728004828D8A09AEF1BF09CEF1BF0A6EF1BF0DF
:10373800000E446E000E456E800E466E7F0E476E7C
:10374800D4EF1BF049BEB3EF1BF0495006E1480423
:10375800D8B0B1EF1BF0B3EF1BF0BFEF1BF0000EBA
:10376800446E000E456E000E466E000E476E000E4B
:103778003D6ED4EF1BF048C043F0FF0E4416FF0E19
:1037880045167F0E4616000E471643A0CEEF1BF0D7
:10379800D0EF1BF0D1EF1BF0468ED8904330476E28
:1037A8003D50471244C031F045C032F046C033F0B6
:1037B80047C034F012001B50800B286E1B501B248E
:1037C8002F6E1AAEEAEF1BF0ECEF1BF0EDEF1BF0DB
:1037D8002F802F50D8B4F3EF1BF0F5EF1BF00AEF52
:1037E8001CF02F28D8A4FBEF1BF0FDEF1BF005EF12
:1037F8001CF0000E186E000E196E000E1A6E000EE8
:103808001B6E1A8E000E1B6E12EF1CF0000E186E47
:10381800000E196E000E1A6E000E1B6E1F50800BE4
:10382800281A1F501F24306E1EAE1DEF1CF01FEF0C
:103838001CF020EF1CF030803050D8B426EF1CF07C
:1038480028EF1CF03DEF1CF03028D8A42EEF1CF018
:1038580030EF1CF038EF1CF0000E1C6E000E1D6ED1
:10386800000E1E6E000E1F6E1E8E000E1F6E45EFA0
:103878001CF0000E1C6E000E1D6E000E1E6E000E5B
:103888001F6E1C501D101E101F10D8A44EEF1CF0E8
:1038980050EF1CF068EF1CF0000E186E000E196E49
:1038A800000E1A6E000E1B6E800E1A127F0E1B126F
:1038B80028501B1218C018F019C019F01AC01AF0B5
:1038C8001BC01BF0ABEF1DF02F50D8A46EEF1CF0FF
:1038D80070EF1CF07AEF1CF0000E186E000E196ED7
:1038E800000E1A6E000E1B6EABEF1DF030502FC08D
:1038F80020F0216A205E000E215A7F0E2024296EB6
:10390800000E21202A6E18C024F019C025F01AC014
:1039180026F01BC027F0000E186E000E196E000E60
:103928001A6E000E1B6E000E2B6E000E2C6E000E13
:103938002D6E000E2E6E000E306EDBEF1CF0305038
:10394800D8B4A9EF1CF0ABEF1CF0C2EF1CF0D89074
:103958002436253626362736D890183619361A369C
:103968001B362EAEBAEF1CF0BCEF1CF0BDEF1CF0FE
:103978001880D8902B362C362D362E361C50245CC9
:103988001D5025581E5026581F502758D8A0CFEF35
:103998001CF0D1EF1CF0DAEF1CF02E8C1C50245ECA
:1039A8001D50255A1E50265A1F50275A302A190EC4
:1039B8003064E1EF1CF0E3EF1CF0A3EF1CF024509F
:1039C800251026102710D8B4ECEF1CF0EEEF1CF0F1
:1039D80006EF1DF02B8006EF1DF0D890183619362B
:1039E8001A361B362EAEFBEF1CF0FDEF1CF0FEEF77
:1039F8001CF01880D8902B362C362D362E362906FA
:103A0800D8A02A061AAE0BEF1DF00DEF1DF0F1EF4E
:103A18001CF0000E306E2EAE14EF1DF016EF1DF0E8
:103A28003AEF1DF0FF0E2B14206EFF0E2C14216EA2
:103A3800FF0E2D14226E7F0E2E14236E205021109F
:103A480022102310D8B42BEF1DF02DEF1DF031EF0D
:103A58001DF0010E306E3AEF1DF018A036EF1DF084
:103A680038EF1DF03AEF1DF02DEF1DF03050D8B4AF
:103A780040EF1DF042EF1DF066EF1DF0010E182615
:103A8800000E19221A221B221BA04DEF1DF04FEF2A
:103A98001DF066EF1DF018C020F019C021F01AC003
:103AA80022F01BC023F02334233222322132203269
:103AB80020C018F021C019F022C01AF023C01BF052
:103AC800294A2A2A2ABE71EF1DF02A5008E129281E
:103AD800D8A071EF1DF073EF1DF07EEF1DF0000E02
:103AE8002A6E2968000E186E000E196E000E1A6EE6
:103AF800000E1B6E2ABE8BEF1DF02A5006E129042A
:103B0800D8B089EF1DF08BEF1DF099EF1DF0000E76
:103B18002A6E000E296E000E186E000E196E000E29
:103B28001A6E000E1B6E000E286E29C02FF02FA0F3
:103B3800A0EF1DF0A2EF1DF0A5EF1DF01A8EA6EF65
:103B48001DF01A9ED8902F301B6E5CEF1CF01200EF
:103B5800000120EE08F06A51D9266B51DA22DECF37
:103B680035F0DECF36F0DECF37F0DECF38F06AC082
:103B7800D9FF6BC0DAFFDECF31F0DECF32F0DECF17
:103B880033F0DECF34F0CAEC19F031C064F032C043
:103B980065F033C066F034C067F0000120EE0CF029
:103BA8006A51D9266B51DA22DECF35F0DECF36F0F6
:103BB800DECF37F0DECF38F020EE04F06A51D92698
:103BC8006B51DA22DECF31F0DECF32F0DECF33F0C8
:103BD800DECF34F0CAEC19F031C060F032C061F0C9
:103BE80033C062F034C063F0A9EC31F060C074F007
:103BF80061C075F062C076F063C077F074C031F0D0
:103C080075C032F076C033F077C034F0000E356EF0
:103C1800000E366E000E376E400E386ECAEC19F084
:103C280068C0D9FF69C0DAFF31C0DEFF32C0DEFFED
:103C380033C0DEFF34C0DEFF000120EE0CF06A5115
:103C4800D9266B51DA22DECF35F0DECF36F0DECF63
:103C580037F0DECF38F020EE08F06A51D9266B51E4
:103C6800DA22DECF31F0DECF32F0DECF33F0DECF36
:103C780034F0CAEC19F031C04EF032C04FF033C006
:103C880050F034C051F0000120EE04F06A51D926FA
:103C98006B51DA22DECF35F0DECF36F0DECF37F0EB
:103CA800DECF38F06AC0D9FF6BC0DAFFDECF31F063
:103CB800DECF32F0DECF33F0DECF34F0CAEC19F0CD
:103CC80031C04AF032C04BF033C04CF034C04DF034
:103CD8006AEC17F04AC074F04BC075F04CC076F02F
:103CE8004DC077F074C031F075C032F076C033F053
:103CF80077C034F0000E356E000E366E000E376E4B
:103D0800400E386ECAEC19F0000120EE04F068513C
:103D1800D9266951DA2231C0DEFF32C0DEFF33C056
:103D2800DEFF34C0DEFF20EE04F06A51D9266B5165
:103D3800DA22DECF35F0DECF36F0DECF37F0DECF59
:103D480038F020EE04F06A51D9266B51DA22DECF22
:103D580031F0DECF32F0DECF33F0DECF34F0CAEC14
:103D680019F031C064F032C065F033C066F034C079
:103D780067F06AC0D9FF6BC0DAFFDECF35F0DECF5F
:103D880036F0DECF37F0DECF38F06AC0D9FF6BC02F
:103D9800DAFFDECF31F0DECF32F0DECF33F0DECF28
:103DA80034F0CAEC19F031C060F032C061F033C0B1
:103DB80062F034C063F0A9EC31F060C06CF061C00F
:103DC8006DF062C06EF063C06FF0000120EE08F085
:103DD8006A51D9266B51DA22DECF35F0DECF36F0C4
:103DE800DECF37F0DECF38F020EE08F06A51D92662
:103DF8006B51DA22DECF31F0DECF32F0DECF33F096
:103E0800DECF34F0CAEC19F031C064F032C065F08E
:103E180033C066F034C067F06CC060F06DC061F00C
:103E28006EC062F06FC063F0A9EC31F060C070F052
:103E380061C071F062C072F063C073F070C04AF084
:103E480071C04BF072C04CF073C04DF0000120EE11
:103E58000CF06A51D9266B51DA22DECF35F0DECF6D
:103E680036F0DECF37F0DECF38F020EE0CF06A51B6
:103E7800D9266B51DA22DECF31F0DECF32F0DECF39
:103E880033F0DECF34F0CAEC19F031C04EF032C056
:103E98004FF033C050F034C051F06AEC17F0000115
:103EA80020EE08F06851D9266951DA224AC0DEFFAF
:103EB8004BC0DEFF4CC0DEFF4DC0DEFF1200B8C0B5
:103EC800D9FFB9C0DAFFDECFF6FFDDCFF7FF080074
:103ED800F550250AD8A473EF1FF075EF1FF0EEEF29
:103EE80020F0B8C0D9FFB9C0DAFFDE2A000EDD2203
:103EF800000E0001F36F000EF26FF2C05AF0F3C02B
:103F08005BF0F469F569B8C0D9FFB9C0DAFFDECF54
:103F1800F6FFDDCFF7FF0800F5500A6E0B6A95EC47
:103F280030F00A500001C26FC251D8B49EEF1FF0A2
:103F3800A0EF1FF0DAEF1FF0B8C0D9FFB9C0DAFF61
:103F4800DECFBCF0DDCFBDF0010EBC27000EBD23D7
:103F5800BCC0F6FFBDC0F7FF0800F5500A6E0B6A3B
:103F680095EC30F00A500001C36FC351D8B4BFEFCD
:103F78001FF0C1EF1FF0DAEF1FF0B8C0D9FFB9C0CA
:103F8800DAFFDECFBCF0DDCFBDF0020EBC27000E9D
:103F9800BD23BCC0F6FFBDC0F7FF0800F5500A6E90
:103FA8000B6A95EC30F00A500001C46F660EC21916
:103FB800D8A4E1EF1FF0E3EF1FF023EF20F0B8C023
:103FC800D9FFB9C0DAFFDECFF6FFDDCFF7FF080073
:103FD800F5CFC9F0B8C0D9FFB9C0DAFFDE2A000EA4
:103FE800DD22BAC0D9FFBBC0DAFFDFCFBCF0040EB8
:103FF800DE26DFCFBDF0000EDD22BCC0D9FFBDC07C
:10400800DAFFDECFC5F0DECFC6F0DECFC7F0DECFF9
:10401800C8F0B6C072F0B7C073F0C5C074F0C6C0BF
:1040280075F0C7C076F0C8C077F0C9C078F092ECD8
:1040380006F072C0B6F073C0B7F009EF21F0C20EF7
:10404800046E000E056EFB0E066E7F0E076E000EE8
:10405800096E020E086E72EC2AF004500510D8A4FE
:1040680038EF20F03AEF20F0B6EF20F0B8C0D9FFD3
:10407800B9C0DAFFDECFBCF0DDCFBDF0010E000124
:10408800BC27000EBD23BCC0F6FFBDC0F7FF08006B
:10409800F5CFC9F0BF0EBC6FFF0EBD6FB8C0D9FF1A
:1040A800B9C0DAFFDECFF6FFDDCFF7FF0800F55025
:1040B800BE6FBF6BBC51BE27BD51BF23BF510AE1C4
:1040C8001A0EBE5DD8A06BEF20F06EEF20F0010E47
:1040D8006FEF20F0000EC06FC16BC051C111D8B492
:1040E80078EF20F07AEF20F094EF20F0BAC0D9FFF3
:1040F800BBC0DAFFDFCFBCF0040EDE26DFCFBDF099
:10410800000EDD22BCC0D9FFBDC0DAFFDECFC5F08E
:10411800DECFC6F0DECFC7F0DECFC8F0ACEF20F0C0
:10412800BAC0D9FFBBC0DAFFDFCFBCF0040EDE2671
:10413800DFCFBDF0000EDD22BCC0D9FFBDC0DAFF65
:10414800DECFC5F0DECFC6F0DECFC7F0DECFC8F0D9
:10415800020EB8C0D9FFB9C0DAFFDE26000EDD2294
:104168000DEF20F0B8C0D9FFB9C0DAFFDECFF6FFF7
:10417800DDCFF7FF0800F550250AD8A4C6EF20F0D8
:10418800C8EF20F0E0EF20F0B8C0D9FFB9C0DAFFDF
:10419800DE2A000EDD22000E056E250E046EB6C066
:1041A80006F0B7C007F0DDEC2AF0000E0001B76F8B
:1041B800010EB66F09EF21F0B8C0D9FFB9C0DAFF18
:1041C800DE2A000EDD22000E0001B76F000EB66F6A
:1041D80009EF21F0B8C0D9FFB9C0DAFFDECFF6FF8A
:1041E800DDCFF7FF0800F550046E056AB6C006F08B
:1041F800B7C007F0DDEC2AF0B8C0D9FFB9C0DAFFC4
:10420800DE2A000EDD22D9EF20F01200000E106E1B
:10421800000E116E1750EFEC31F0185021EC34F00D
:104228001950D8B41AEF21F01CEF21F020EF21F03B
:10423800200E406E000E416E1A50D8B426EF21F0C1
:1042480028EF21F02CEF21F0300E426E000E436E65
:10425800000E466E000E456E26EF22F0100E476ED9
:10426800100E45241B6E000E46201C6E1B50155C5C
:104278001C501658D8B043EF21F045EF21F048EF15
:1042880021F04550155C476E47501B6E1C6A000EA6
:104298001D6E010E1E6E18501D5E000E1E5A1B501C
:1042A8001D5C1E50800A1F6E1C50800A1F58D8B013
:1042B80060EF21F062EF21F065EF21F0185000085F
:1042C800476E1A50D8B46BEF21F06DEF21F0B0EFC4
:1042D80021F0000E446EA5EF21F0445013241B6E0C
:1042E800000E14201C6E45501B2646501C221BC075
:1042F800F6FF1CC0F7FFF86A070EF76403D0080042
:10430800F55005D0F6CFE9FFF7CFEAFFEF501D6E65
:10431800445042241E6E000E43201F6E1EC0F6FF3E
:104328001FC0F7FFF86A070EF76404D01DC0F5FF39
:104338000C0006D0F6CFE9FFF7CFEAFF1DC0EFFF6C
:10434800442A4750445CD8A0ACEF21F0AEEF21F0EE
:1043580071EF21F0B6EF21F045501324426E46501C
:104368001420436E6F0E056E47C006F042C007F07A
:1043780043C008F0010197517EEC2FF01950D8B4D2
:10438800C8EF21F0CAEF21F002EF22F040504110AF
:10439800D8B4D1EF21F0D3EF21F002EF22F0000ED4
:1043A800106E000E116E1750EFEC31F0185021EC22
:1043B80034F06F0E056E47C006F040C007F041C0EC
:1043C80008F00101975191EC29F042C004F043C074
:1043D80005F040C006F041C007F047C008F0096A80
:1043E80042EC2BF004500510D8B4FDEF21F0FFEF9C
:1043F80021F002EF22F0000E32EF22F0475045265E
:10440800000E4622475018261550455C165046584F
:10441800D8B011EF22F013EF22F026EF22F0185057
:10442800D8A419EF22F01BEF22F01CEF22F0172A74
:10443800000E106E000E116E1750EFEC31F0185090
:1044480021EC34F01550455C16504658D8A02FEF93
:1044580022F031EF22F032EF21F0010E120048C1B4
:1044680041F049C142F04AC143F04BC144F031C068
:1044780041F032C042F033C043F034C044F0810E02
:10448800356EFF0E366E41C037F042C038F043C07B
:1044980039F044C03AF0180E57EF22F0D8903A326B
:1044A800393238323732E82E52EF22F0375035247D
:1044B8003F6E000E3620406E40BE6CEF22F040503A
:1044C80009E1170E3F5CD8A06CEF22F06EEF22F0E6
:1044D80078EF22F031C031F032C032F033C033F01F
:1044E80034C034F03BEF23F040BE7DEF22F07FEF85
:1044F80022F0EFEF22F03FC035F0FF0E366EFF0ED0
:10450800376E7F0E386E000E396E35668EEF22F0EC
:1045180096EF22F039343932383237323632352E86
:1045280089EF22F036C03BF037C03CF038C03DF090
:1045380039C03EF03B504114356E3C504214366E43
:104548003D504314376E3E504414386E3550361083
:1045580037103810D8A4B3EF22F0B5EF22F0B7EF38
:1045680022F06EEF22F041C035F042C036F043C071
:1045780037F044C038F0200EC7EF22F0D890383218
:10458800373236323532E82EC2EF22F03550361047
:1045980037103810D8B4D3EF22F0D5EF22F0DDEF82
:1045A80022F03B5041263C5042223D5043223E508F
:1045B80044223B1C356E3C1C366E3D1C376E3E1C3F
:1045C800386E35504116365042163750431638501B
:1045D800441633EF23F041C035F042C036F043C0F3
:1045E80037F044C038F0200EFFEF22F0D890383270
:1045F800373236323532E82EFAEF22F0355036109F
:1046080037103810D8A40BEF23F00DEF23F017EF75
:1046180023F0000E416E000E426E000E436E000E37
:10462800446E33EF23F0D8904134356E4234366E01
:104638004334376E4434386E3550361037103810DE
:10464800D8B429EF23F02BEF23F033EF23F0000E3B
:10465800416E000E426E800E436EBF0E446E41C026
:1046680031F042C032F043C033F044C034F012009D
:10467800000E356E000E366E800E376E460E386EA2
:1046880076C0D9FF77C0DAFFDECF31F0DECF32F067
:10469800DECF33F0DECF34F0CAEC19F031C064F06D
:1046A80032C065F033C066F034C067F074C0D9FF1B
:1046B80075C0DAFFDECF0AF0DDCF0BF0000E0BBEBF
:1046C800FF0E0C6E0D6E010E18EC25F00AC060F09E
:1046D8000BC061F00CC062F00DC063F0A9EC31F0C2
:1046E80060C068F061C069F062C06AF063C06BF0D6
:1046F8000CEC28F072C0D9FF73C0DAFF000168C063
:10470800DEFF69C0DDFF000E356E000E366E800ECE
:10471800376E460E386E20EE04F07651D926775162
:10472800DA22DECF31F0DECF32F0DECF33F0DECF6B
:1047380034F0CAEC19F031C064F032C065F033C00F
:1047480066F034C067F0000120EE02F07451D926FB
:104758007551DA22DECF0AF0DDCF0BF0000E0BBE6A
:10476800FF0E0C6E0D6E010E18EC25F00AC060F0FD
:104778000BC061F00CC062F00DC063F0A9EC31F021
:1047880060C068F061C069F062C06AF063C06BF035
:104798000CEC28F0000120EE02F07251D92673517A
:1047A800DA2268C0DEFF69C0DDFF000E356E000E3C
:1047B800366E800E376E460E386E20EE08F0765153
:1047C800D9267751DA22DECF31F0DECF32F0DECFD4
:1047D80033F0DECF34F0CAEC19F031C064F032C0E7
:1047E80065F033C066F034C067F0000120EE04F0D5
:1047F8007451D9267551DA22DECF0AF0DDCF0BF0DD
:10480800000E0BBEFF0E0C6E0D6E010E18EC25F09F
:104818000AC060F00BC061F00CC062F00DC063F01C
:10482800A9EC31F060C068F061C069F062C06AF05C
:1048380063C06BF00CEC28F0000120EE04F072511C
:10484800D9267351DA2268C0DEFF69C0DDFF120085
:1048580074C148F075C149F076C14AF077C14BF090
:10486800A8EC32F011C04EF012C04FF02350246E65
:10487800256A4E50245C2550800A266E4F50800AC7
:104888002658D8B04AEF24F04CEF24F0D7EF24F0A4
:104898004FBE58EF24F04F5009E1C90E4E5CD8A026
:1048A80058EF24F05AEF24F0BDEF24F000EC34F078
:1048B800A8EC32F011C04EF012C04FF04E504F101D
:1048C800D8A469EF24F06BEF24F0D7EF24F0485018
:1048D8000101745D246E49507559256E4A50765908
:1048E800266E4B507759276E27502610251009E160
:1048F8000C0E245CD8A083EF24F085EF24F05CEF45
:1049080024F0D7EF24F023504E5C4E6E4F50D8A0C1
:104918004F044F6EB4EF24F04FBE9CEF24F04F507D
:1049280009E1200E4E5CD8A09CEF24F09EEF24F005
:10493800A4EF24F0000E4D6E200E4C6EA8EF24F06C
:104948004EC04CF04FC04DF0280E116E000E126E86
:104958004CC013F0C3EC33F04C504E5E4D504F5AE0
:104968004E504F10D8A4BBEF24F0BDEF24F090EFC9
:1049780024F0A8EC32F011C04EF012C04FF02350D2
:10498800246E256A4E50245C2550800A266E4F50AE
:10499800800A2658D8A0D3EF24F0D5EF24F087EF6B
:1049A80024F0D7EF24F04E504F10D8A4DEEF24F0B7
:1049B800E0EF24F0E3EF24F0000E17EF25F0485065
:1049C8000101745D246E49507559256E4A50765917
:1049D800266E4B507759276E27502610251009E16F
:1049E8000C0E245CD8A0FBEF24F0FDEF24F0FFEFC1
:1049F80024F0E0EF24F02350246E256A4E5024184A
:104A080007E14F502518D8A40CEF25F00EEF25F03C
:104A180034EF24F021C011F022C012F023C013F0AB
:104A2800C3EC33F0010E1200126E1250D8B41FEF0F
:104A380025F021EF25F043EF25F00DBE28EF25F0F6
:104A480026EF25F043EF25F00AC00EF00BC00FF05B
:104A58000CC010F00DC011F00E1E0F1E101E111EFE
:104A68000E2A000E0F22102211220EC014F00FC0C1
:104A780015F010C016F011C017F04BEF25F00AC062
:104A880014F00BC015F00CC016F00DC017F00A504A
:104A98000B100C100D10D8A454EF25F056EF25F08C
:104AA80060EF25F0000E0A6E000E0B6E000E0C6E05
:104AB800000E0D6EF1EF25F0960E136E6AEF25F0DD
:104AC800132AD8901732163215321432000E1414E5
:104AD8000E6E000E15140F6E000E1614106EFE0EDC
:104AE8001714116E0E500F1010101110D8A47FEF6C
:104AF80025F081EF25F064EF25F08FEF25F0132ADC
:104B0800010E1426000E152216221722D8901732ED
:104B1800163215321432000E14140E6E000E1514CF
:104B28000F6E000E1614106EFF0E1714116E0E5035
:104B38000F1010101110D8A4A4EF25F0A6EF25F03F
:104B480083EF25F0AEEF25F01306D890143615360E
:104B58001636173616BEB3EF25F0B5EF25F0BDEFC4
:104B680025F0020E1360BBEF25F0BDEF25F0A8EF8E
:104B780025F013B0C2EF25F0C4EF25F0C5EF25F0FE
:104B8800169ED890133213C00EF00F6A106A116A7D
:104B98000EC011F0106A0F6A0E6A0E5014120F50F0
:104BA800151210501612115017121250D8B4DFEF08
:104BB80025F0E1EF25F0E9EF25F00DBEE8EF25F04F
:104BC800E6EF25F0E9EF25F0178E14C00AF015C0BE
:104BD8000BF016C00CF017C00DF01200360E046E64
:104BE800000E056E33C006F034C007F07DEC27F0E8
:104BF800356E3550D8A403EF26F005EF26F0B9EF4F
:104C080026F036C00AF037C00BF0000E0BBEFF0EC0
:104C18000C6E0D6E010E18EC25F00AC018F00BC0D2
:104C280019F00CC01AF00DC01BF0000E1C6E000E1F
:104C38001D6E800E1E6E460E1F6EDFEC1BF031C01F
:104C4800D9FF32C0DAFF18C0DEFF19C0DEFF1AC074
:104C5800DEFF1BC0DEFF20EE38F0DECF0AF0DDCF2E
:104C68000BF0000E0BBEFF0E0C6E0D6E010E18EC55
:104C780025F00AC018F00BC019F00CC01AF00DC0CE
:104C88001BF0000E1C6E000E1D6E800E1E6E460E72
:104C98001F6EDFEC1BF020EE04F03150D9263250A5
:104CA800DA2218C0DEFF19C0DEFF1AC0DEFF1BC003
:104CB800DEFF20EE3AF0DECF0AF0DDCF0BF0000E7B
:104CC8000BBEFF0E0C6E0D6E010E18EC25F00AC01F
:104CD80018F00BC019F00CC01AF00DC01BF0000E34
:104CE8001C6E000E1D6E800E1E6E460E1F6EDFECD3
:104CF8001BF020EE08F03150D9263250DA2218C0C5
:104D0800DEFF19C0DEFF1AC0DEFF1BC0DEFF20EE8B
:104D18003CF0DECF0AF0DDCF0BF0000E0BBEFF0E2D
:104D28000C6E0D6E010E18EC25F00AC018F00BC0C1
:104D380019F00CC01AF00DC01BF0000E1C6E000E0E
:104D48001D6E800E1E6E460E1F6EDFEC1BF020EEF1
:104D58000CF03150D9263250DA2218C0DEFF19C0C3
:104D6800DEFF1AC0DEFF1BC0DEFF12006B0E156EE1
:104D7800070E166E010E516E51C017F001019751C2
:104D8800AEEC2EF0070E506E170E4F6E6A0EE82E20
:104D9800FED74F2EFCD7502EFAD700D06A0E156ECC
:104DA800020E166E030E176E070E516E51C018F0E4
:104DB8000101975118EC2EF0070E506E170E4F6E2A
:104DC8006A0EE82EFED74F2EFCD7502EFAD700D009
:104DD8006B0E0D6E010E0E6E01019751A9EC33F0AA
:104DE800380E0D6E000E0E6E01019751A9EC33F0CE
:104DF800230E0D6E000E0E6E01019751A9EC33F0D3
:104E08001C0E0D6E000E0E6E01019751A9EC33F0C9
:104E1800370E0D6E800E0E6E01019751A9EC33F01E
:104E28006B0E0D6E010E0E6E01019751A9EC33F059
:104E3800190E0D6E040E0E6E01019751A9EC33F098
:104E48001A0E0D6E010E0E6E01019751A9EC33F08A
:104E58000D0E486E730E496E0B0E4B6EF60E4A6EB3
:104E6800000E4C6E000E4D6E010E4E6ECFEC32F001
:104E78000009D8A442EF27F044EF27F047EF27F0C6
:104E8800000E7CEF27F0700E0F6E040E116E000EF0
:104E9800106E010197519CEC33F01B0E0D6E180E2D
:104EA8000E6E01019751A9EC33F06A0E0D6EC00E1B
:104EB8000E6E01019751A9EC33F0380E0D6E020EFB
:104EC8000E6E01019751A9EC33F06A0E156E020EB1
:104ED800166E010E176E01019751AEEC2EF0000E02
:104EE800E8EC33F0000E0001F76F1C0EF66F010EB0
:104EF800120006500710D8A484EF27F086EF27F099
:104F08008AEF27F0000E066E000E076E06C0D9FF66
:104F180007C0DAFFDF50086E08500A6E096A20EEF3
:104F280001F00650D9260750DA22DF500B6E0B50DD
:104F38000912000E0A1204C0D9FF05C0DAFF09C021
:104F4800DEFF0AC0DDFF20EE04F00650D926075028
:104F5800DA22DF50086E08500A6E096A20EE05F062
:104F68000650D9260750DA22DF500B6E0B50091273
:104F7800000E0A1220EE02F00450D9260550DA225B
:104F880009C0DEFF0AC0DDFF20EE08F00650D92672
:104F98000750DA22DF50086E08500A6E096A20EEC0
:104FA80009F00650D9260750DA22DF500B6E0B5055
:104FB8000912000E0A1220EE04F00450D9260550FA
:104FC800DA2209C0DEFF0AC0DDFF20EE0CF0065031
:104FD800D9260750DA22DF50086E08500A6E096A8F
:104FE80020EE0DF00650D9260750DA22DF500B6E5E
:104FF8000B500912000E0A1220EE06F00450D926B2
:105008000550DA2209C0DEFF0AC0DDFF000E1200DB
:1050180000016A356B35716F7151D8A416EF28F00D
:1050280018EF28F022EF28F0000E686F000E696F65
:10503800000E6A6F000E6B6F8FEF28F068C06CF07F
:1050480069C06DF06AC06EF06BC06FF0200E32EF71
:1050580028F0D8906F336E336D336C33E82E2DEF14
:1050680028F06C51706F6A8FFF0E6817FF0E691772
:10507800FF0E6A17000E6B17960E715F71BF49EF2E
:1050880028F047EF28F05FEF28F07151800A970F5A
:10509800D8B051EF28F053EF28F055EF28F018EF6B
:1050A80028F0D8906B336A3369336833713F55EF12
:1050B80028F077EF28F01F0E716565EF28F067EF8D
:1050C80028F06FEF28F018EF28F0D8906837693784
:1050D8006A376B3771077151D8A475EF28F077EFED
:1050E80028F069EF28F07051D8B47DEF28F07FEFF1
:1050F80028F087EF28F06B1F6A1F691F686D000E84
:1051080069236A236B2368C068F069C069F06AC0C4
:105118006AF06BC06BF01200000E4A14526E000E5B
:105128004B14536E800E4C14546E7F0E4D14556EF6
:105138005250531054105510D8A4A5EF28F0A7EFDB
:1051480028F0AFEF28F0000E4A6E000E4B6E000EEE
:105158004C6E000E4D6E000E4E14526E000E4F1423
:10516800536E800E5014546E7F0E5114556E52506B
:10517800531054105510D8A4C4EF28F0C6EF28F0E7
:10518800CEEF28F0000E4E6E000E4F6E000E506EE1
:10519800000E516E4DAED3EF28F0D5EF28F0DEEFBC
:1051A80028F04A6C4B1ED8B04B2A4C1ED8B04C2A5B
:1051B800800E4D5651AEE3EF28F0E5EF28F0EEEF04
:1051C80028F04E6C4F1ED8B04F2A501ED8B0502A27
:1051D800800E5156000E4A1A000E4B1A000E4C1A39
:1051E800800E4D1A000E4E1A000E4F1A000E501A5D
:1051F800800E511A4E504A5C4F504B5850504C58E4
:1052080051504D58D8B00BEF29F00DEF29F010EFA1
:1052180029F0D89011EF29F0D880120050C10EF073
:1052280051C10FF052C110F053C111F004C00EF07B
:1052380005C00FF006C010F007C011F00EC008F04E
:105248000FC009F010C00AF011C00BF0180E32EFB1
:1052580029F0D8900B320A3209320832E82E2DEFA5
:1052680029F008500C6E0D6A0C500D10D8A43FEFB1
:1052780029F041EF29F061EF29F0D8900E34086E3B
:105288000F34096E10340A6E11340B6E0850091071
:105298000A100B10D8A453EF29F055EF29F05BEF53
:1052A80029F0000E056E020E046E90EF29F0000E34
:1052B800056E030E046E90EF29F00C280D10D8A48B
:1052C80068EF29F06AEF29F08CEF29F00EC008F09A
:1052D8000FC009F010C00AF011C00BF0090ED890E9
:1052E800083609360A360B36E82E73EF29F00850CF
:1052F80009100A100B10D8B484EF29F087EF29F0B1
:10530800010E88EF29F0000E046E056A90EF29F06F
:10531800000E056E040E046E12000F6EF4EC33F0EE
:1053280029EC33F0F4EC33F00F500F24E2EC32F0B8
:10533800F4EC33F00550E2EC32F0F4EC33F03AECF4
:1053480033F0F4EC33F0D8800F34E2EC32F0000E96
:10535800106EE6EF29F0F4EC33F010C009F00A6A99
:1053680009BE0A0609500724D96E0A500820DA6EC9
:105378007AEC32F0DF6E10C009F00A6A09BE0A063C
:10538800FF0E0B6EFF0E0C6E06500D6E0E6A0B5064
:105398000D260C500E2209500D1807E10A500E1860
:1053A800D8A4D9EF29F0DBEF29F0E1EF29F0F4ECEC
:1053B80033F00BEC34F0E5EF29F0F4EC33F016ECB5
:1053C80034F0102A0650096E0A6A10C00BF00C6AF5
:1053D8000BBE0C0609500B5C0C50800A0D6E0A506F
:1053E800800A0D58D8A0FBEF29F0FDEF29F0AFEFA8
:1053F80029F0F4EC33F018EC33F01050120006509A
:105408000710D8A40AEF2AF00CEF2AF010EF2AF0C0
:10541800000E066E000E076E20EE10F00650D9261C
:105428000750DA22DF50086E08500A6E096A20EE2B
:1054380011F00650D9260750DA22DF500B6E0B50B8
:105448000912000E0A1204C0D9FF05C0DAFF09C00C
:10545800DEFF0AC0DDFF20EE12F00650D926075005
:10546800DA22DF50086E08500A6E096A20EE13F03F
:105478000650D9260750DA22DF500B6E0B5009125E
:10548800000E0A1220EE02F00450D9260550DA2246
:1054980009C0DEFF0AC0DDFF20EE14F00650D92651
:1054A8000750DA22DF50086E08500A6E096A20EEAB
:1054B80015F00650D9260750DA22DF500B6E0B5034
:1054C8000912000E0A1220EE04F00450D9260550E5
:1054D800DA2209C0DEFF0AC0DDFF120004C00BF0AB
:1054E80005C00CF006C00DF007C00EF00806D8A0E5
:1054F8000906082806E10928D8A485EF2AF087EFCD
:105508002AF094EF2AF0000E056E000E046EDCEF10
:105518002AF00B4A0C2A0D4A0E2A0806D8A00906BA
:105528000BC0D9FF0CC0DAFFDF50D8B49EEF2AF0C9
:10553800A0EF2AF0CBEF2AF00DC0F6FF0EC0F7FF60
:105548000800F5500009D8B4ACEF2AF0AEEF2AF005
:10555800CBEF2AF008500910D8B4B5EF2AF0B7EF0E
:105568002AF0CBEF2AF00BC0D9FF0CC0DAFFDF50CE
:105578000A6E0DC0F6FF0EC0F7FF0800F5500A18B6
:10558800D8B4C9EF2AF0CBEF2AF08DEF2AF00BC080
:10559800D9FF0CC0DAFFDF500A6E0DC0F6FF0EC04F
:1055A800F7FF0800F5500A5C046E056AD8A00506E6
:1055B800120006500710D8B4E4EF2AF0E6EF2AF0FC
:1055C800EFEF2AF006500710D8A4EDEF2AF0EFEF1E
:1055D8002AF0F4EF2AF0045045EC34F041EF2BF0B8
:1055E80020EE04F00650D9260750DA22DE50DE10ED
:1055F800D8B401EF2BF003EF2BF01EEF2BF020EEC9
:1056080004F00650D9260750DA2210EE02F00650B0
:10561800E1260750E222DE50E65CE650800A0C6E76
:10562800DE50800A0C58D8B01CEF2BF01EEF2BF080
:1056380041EF2BF020EE02F00650D9260750DA226F
:10564800DECF08F0DDCF09F006C0D9FF07C0DAFFCA
:10565800DECF0AF0DDCF0BF008500A24D96E0950CE
:105668000B20DA6E04C0DFFF20EE02F00650D926C8
:105678000750DA22DE2A000EDD22120004C00CF0E8
:1056880005C00DF006C00EF007C00FF053EF2BF069
:105698000806D8A009060C4A0D2A0E4A0F2A0850F7
:1056A8000910D8B45AEF2BF05CEF2BF07AEF2BF0FF
:1056B8000EC0D9FF0FC0DAFFDF500A6E0CC0F6FF2C
:1056C8000DC0F7FFF86A070EF76403D00800F5501D
:1056D80005D0F6CFE9FFF7CFEAFFEF500A18D8B4A4
:1056E80078EF2BF07AEF2BF04CEF2BF008500910E5
:1056F800D8A481EF2BF083EF2BF089EF2BF0000E6D
:10570800056E000E046EA6EF2BF00CC0F6FF0DC060
:10571800F7FFF86A070EF76403D00800F55005D0C4
:10572800F6CFE9FFF7CFEAFFEF500A6E0EC0D9FFB8
:105738000FC0DAFFDF500B6E0B500A5C046E056A6F
:10574800D8A005061200000E096E07BEB0EF2BF0B8
:10575800AEEF2BF0B6EF2BF0066C071ED8B0072A79
:10576800010E096E05BEBDEF2BF0BBEF2BF0C3EFAA
:105778002BF0046C051ED8B0052A010E091A000E7C
:105788000B6E000E0A6E06500710D8B4CEEF2BF041
:10579800D0EF2BF0F8EF2BF0010E086ED8EF2BF0BE
:1057A800D89006360736082A07AEDDEF2BF0DFEF74
:1057B8002BF0D4EF2BF0D8900A360B360650045C49
:1057C80007500558D8A0EBEF2BF0EDEF2BF0F2EFD8
:1057D8002BF00650045E0750055A0A80D89007320D
:1057E8000632082EDFEF2BF00950D8B4FEEF2BF06D
:1057F80000EF2CF004EF2CF00A6C0B1ED8B00B2A2B
:105808000AC004F00BC005F01200000E0101006F81
:10581800000E016F000E026F000E036F000E046F82
:10582800000E056F000E066F000E076F000E0C6F5E
:10583800000E0D6F000E0E6F000E0F6F000E106F32
:10584800000E116F000E126F000E136F000E3C6FEA
:10585800000E3D6F000E3E6F000E3F6F000E406F52
:10586800000E416F000E426F000E436F000E306F46
:10587800000E316F000E326F000E336F000E346F62
:10588800000E356F000E366F000E376F000E286F52
:10589800000E296F000E2A6F000E2B6F000E246F6A
:1058A800000E256F000E266F000E276F000E186F72
:1058B800000E196F000E1A6F000E1B6F000E1C6F82
:1058C800000E1D6F000E1E6F000E1F6F12005AA0F3
:1058D80070EF2CF072EF2CF07CEF2CF016C00DF06E
:1058E80017C00EF014C00FF015C010F0CDEC31F059
:1058F80019BE81EF2CF083EF2CF089EF2CF018C043
:105908001DF019C01EF08DEF2CF0000E1E6E000E5B
:105918001D6E000E1C6E000E1B6E9FEF2CF0000E0D
:10592800056E200E046E14C006F015C007F0DDECFD
:105938002AF01B4A1C2A1D501B5C1C50800A1A6E38
:105948001E50800A1A58D8A0ACEF2CF0AEEF2CF0FD
:1059580093EF2CF05AB0B3EF2CF0B5EF2CF0BFEF6B
:105968002CF016C00DF017C00EF014C00FF015C0C3
:1059780010F0CDEC31F016C004F017C005F045EC7E
:1059880032F01D500424146E1E500520156E1200AE
:10599800000E096E05BED5EF2CF0D3EF2CF0DBEF2F
:1059A8002CF0046C051ED8B0052A010E096E07BE3E
:1059B800E2EF2CF0E0EF2CF0E6EF2CF0066C071E7F
:1059C800D8B0072A06500710D8B4EDEF2CF0EFEF47
:1059D8002CF013EF2DF0010E086EF7EF2CF0D89095
:1059E80006360736082A07AEFCEF2CF0FEEF2CF03F
:1059F800F3EF2CF00650045C07500558D8A007EFC9
:105A08002DF009EF2DF00DEF2DF00650045E075034
:105A1800055AD89007320632082EFEEF2CF00950AE
:105A2800D8B419EF2DF01BEF2DF01FEF2DF0046CFB
:105A3800051ED8B0052A04C004F005C005F0120000
:105A4800000E04140C6E000E05140D6E800E061464
:105A58000E6E7F0E07140F6E0C500D100E100F10E7
:105A6800D8A439EF2DF03BEF2DF043EF2DF0000EC9
:105A7800046E000E056E000E066E000E076E000E18
:105A880008140C6E000E09140D6E800E0A140E6EAA
:105A98007F0E0B140F6E0C500D100E100F10D8A4A3
:105AA80058EF2DF05AEF2DF062EF2DF0000E086E32
:105AB800000E096E000E0A6E000E0B6E08500418D8
:105AC8000FE1095005180CE10A50061809E10B50BE
